:100000001BC035C034C033C032C031C030C02FC077
:100010002EC02DC02DC02BC02AC029C028C0AE20A4
:1000200000C840817FA1A6A83FD300D580D922DA9D
:1000300012DB208D14A4AF0011241FBECFE5D2E047
:10004000DEBFCDBF10E0A0E6B0E0E0E9F5E002C021
:1000500005900D92AA36B107D9F720E0AAE6B0E0E4
:1000600001C01D92AE36B207E1F712D28FC2C8CFDF
:100070001F920F920FB60F9211242F933F934F931D
:100080005F936F937F938F939F93AF93BF93EF9300
:10009000FF9380916A0090916B009C012F5F3F4F0E
:1000A00030936B0020936A00C29729F457D01092C6
:1000B0006B0010926A00FF91EF91BF91AF919F91F9
:1000C0008F917F916F915F914F913F912F910F9001
:1000D0000FBE0F901F901895DB01FC0160E070E0EF
:1000E0006A177B070CF0089584812081280F2083F4
:1000F0003181380F318395814281490F4283538189
:10010000590F53835F3310F4411102C091959583C9
:100110003F3710F4211102C0819584836F5F7F4FB8
:100120003696DECFCF93DF93C62F880F880F880FC8
:1001300067E0680F03D161E06C0F8C2FF1D098D08D
:10014000C8E0D0E08FEF76D02197E1F7DF91CF9133
:1001500095C0BC9AC49A0895C498089588B390E154
:10016000892788BB0895CF93DF93CDB7DEB7289753
:100170000FB6F894DEBF0FBECDBF88E0E0E6F0E03A
:10018000DE01119601900D928A95E1F780916D0044
:10019000811121C081E080936D0080916C00FE018F
:1001A0003196E80FF11D87FDFA9580816AD1809123
:1001B0006C00082E000C990B019668E070E0BFD12E
:1001C00080936C0028960FB6F894DEBF0FBECDBFAB
:1001D000DF91CF91089510926D0028960FB6F89494
:1001E000DEBF0FBECDBFDF91CF9150C1B89ABA9A92
:1001F000C09AC29A8AE28DB980EF8EB98FEF8FB91B
:100200000895C098C298C09A0895C29AC09A089555
:10021000806F8EB976990895689AFCCFB8981FB808
:100220008EE0F6DFB89A90B38FEF8FB981E091112D
:1002300080E008958FB980E0EBDFF0DF811102C02C
:10024000BC9AC49A0895DDDF88E7F4CFCF93DF939B
:10025000FADF80E0EFDFCEE1D0E0FE018491EADF5B
:100260002196F0E0C733DF07C1F7DF91CF91CDCF03
:10027000EADF80E4DFCFE7DF80E0DCCFC6CFEF92BC
:10028000FF920F931F93CF93DF937C018B01C0E00C
:10029000D0E0CE15DF053CF0DF91CF911F910F919B
:1002A000FF90EF90B2CFF80181918F01C3DF2196CB
:1002B000F0CFEF92FF920F931F93CF93DF937C01C8
:1002C0008B01D6DFE80100E010E00E151F053CF0C1
:1002D000DF91CF911F910F91FF90EF9096CF899171
:1002E000A9DF0F5F1F4FF1CFEF92FF920F931F9384
:1002F000CF93DF938C017B01BBDFC0E0D0E0C01760
:10030000D1073CF0DF91CF911F910F91FF90EF90BB
:100310007CCFF701EC0FFD1F84918CDF2196EFCF8E
:10032000CF93DF93D82FC62FA6DF82E283DF8D2FF6
:1003300081DF8C2F7FDFDF91CF9167CFCF93DF936A
:10034000D82FC62F98DF81E275DF8D2F73DF8C2FBA
:1003500071DFDF91CF9159CFCF93DF936FE780E0CB
:10036000EDDF67E080E0DCDF83DFC0E0D4E080E049
:1003700061DF2197E1F7DF91CF9147CF6FE780E40D
:10038000DDDF63E083E0CCDF73DF8FEF53DF80E0FE
:1003900051DF8FEF4FDF80E04DDF8FEF4BDF35CF49
:1003A00087B1836087B986B1866886B90895369A21
:1003B000369BFECF84B195B10895BF92CF92DF9264
:1003C000EF92FF920F931F93CF93DF9304EF11E00F
:1003D000B12CC12CD12CE12CF12CF894E8DFEC01EC
:1003E000789489599340439738F4B39480E5B816CC
:1003F00068F180E090E02FC0CE018C549340439789
:1004000038F4C39480E5C81608F181E090E023C079
:10041000CE01845B9240439738F4D39480E5D8169C
:10042000A8F082E090E017C0CE01875F914043972B
:1004300038F4E39480E5E81648F083E090E00BC0E0
:10044000E29724F4F39480E5F81678F40150104014
:1004500021F685E090E0DF91CF911F910F91FF9001
:10046000EF90DF90CF90BF90089584E090E0F3CFBD
:1004700080B7866680BF1FBC80EF8DBD88E78EBDCC
:1004800008958DBD86958EBDB99A0895B998089541
:1004900080E886BD16BC1ABC13BE8AB582608ABDD0
:1004A00083B7856083BF8EE489BD12BE789489B717
:1004B000806189BFDDDF9ADEC9DE72DF4DDF49DE94
:1004C0002FEF84E39CE0215080409040E1F700C092
:1004D000000042DE2FEF84E39CE0215080409040FA
:1004E000E1F700C00000C0E068DF8430910511F43E
:1004F00033DFF9CF009731F4C11101C02DDF60E087
:1005000087E008C08130910541F4C11101C024DFAA
:1005100063E08EE007DEC1E0E7CF8330910531F480
:10052000C11101C019DF63E080E0F4CF029729F424
:10053000C11101C011DF67E0E3CF0EDFD5CF97FB1C
:10054000072E16F4009406D077FD08D00BD007FCD8
:1005500005D03EF4909581959F4F089570956195D3
:100560007F4F0895AA1BBB1B51E107C0AA1FBB1FE9
:10057000A617B70710F0A61BB70B881F991F5A952F
:10058000A9F780959095BC01CD010895F894FFCF0F
:0A059000EFD5BEB39F8E7F77000009
:00000001FF
