:100000001BC222C221C220C21FC21EC21DC21CC2EC
:100010001BC21AC219C218C217C216C215C2FFFFEC
:10002000FFFFFFFFFFFFFFFFFFFFFFFFFFFFFFFFE0
:10003000FFFFFFFFFFFFFFFFFFFFFFFF7F7F3F1F70
:100040001F1F0F0F0F0F0F0F0F0F0F0F0F0F0F0FA0
:100050000F1F1F3F3F3F7F7FFFFFFFFFFFFFFFFFA0
:10006000FFFFFFFFFFFFFFFFFFFFFFFFFFFFFFFFA0
:10007000FFFFFFFFFFFFFFFFFFFFFFFFFFFFFFFF90
:10008000FFFFFFFFFFFFFFFFFFFFFFFFFFFFFFFF80
:10009000FFFFFFFFFFFFFFFFFFFFFFFFFFFFFFFF70
:1000A000FFFFFFFFFFFFFFFFFFFFFFFFFFFFFFFF60
:1000B000FFFFFF7F3F1F0F07030301000010101811
:1000C000181C1C3CFEFFFFFFFFFFFF7F3F1F1F1E92
:1000D0001E1C1C1C3878F0F0E0C08103070F1F3F86
:1000E000FFFFFFFFFFFFFFFFFFFFFFFFFFFFFFFF20
:1000F000FFFFFFFFFFFFFFFFFFFFFFFFFFFFFFFF10
:10010000FFFFFFFFFFFFFFFFFFFFFFFFFFFFFFFFFF
:10011000FFFFFFFFFFFFFFFFFFFFFFFFFFFFFFFFEF
:10012000FFFFFFFFFFFFFFFFFFFFFFFFFF7F3F0F0F
:10013000030180E0F000000000E0F8FCFCFEFEFEA1
:10014000FCF8E000000107FF1F07010080E0F8FE57
:10015000FEFCFCF8F0C00001030FFFFFFCF0C00044
:1001600000030F7FFFFFFFFFFFFFFFFFFFFFFFFF0A
:10017000FFFFFFFFFFFFFFFFFFFFFFFFFFFFFFFF8F
:10018000FFFFFFFFFFFFFFFFFFFFFFFFFFFFFFFF7F
:10019000FFFFFFFFFFFFFFFFFFFFFFFFFFFFFFFF6F
:1001A000FFFFFFFFFFFFFFFFFFFF1F07010080E0D2
:1001B000F8FEFFFFFFFCF8F0E0C0C1C3C3838387F4
:1001C000878381C0C0F0F8FFE0C08000070F1F1FC9
:1001D0001F1F1F1F1F0F000000C0FFFFFFFFFFFEBC
:1001E000F8C00000011FFFFFFFFFFFFFFFFFFFFF41
:1001F000FFFFFFFFFFFFFFFFFFFFFFFFFFFFFFFF0F
:10020000FFFFFFFFFFFFFFFFFFFFFFFFFFFFFFFFFE
:10021000FFFFFFFFFFFFFFFFFFFFFFFFFFFFFFFFEE
:10022000FFFFFFFFFFFFFFFF3F00000000E0C1C135
:1002300083838707070F0F1F1F1F1F3F3F3F3F7F0E
:100240007F7F7F7F7FFFFFFFFFFFFFFFFEFEFEFE42
:10025000FEFEFEFEFEFEFEFFFFFF7F7F7F3F3F3F75
:100260001F1F000000001FFFFFFFFFFFFFFFFFFF3A
:10027000FFFFFFFFFFFFFFFFFFFFFFFFFFFFFFFF8E
:10028000FFFFFFFFFFFFFFFFFFFFFFFFFFFFFFFF7E
:10029000FFFFFFFFFFFFFFFFFFFFFFFFFFFFFFFF6E
:1002A000FFFFFFFFFFFFFFFFE0000000073FFFFF32
:1002B000FFFFFFFF3F02000000F0FCFCFCF8F8F835
:1002C000F808000000C0F0F0F0F0F0F0F0F0F010EE
:1002D00000000080F0F0F0F0F000000000F8F8FC02
:1002E0003C00000000F0FFFFFFFFFFFFFFFFFFFFEC
:1002F000FFFFFFFFFFFFFFFFFFFFFFFFFFFFFFFF0E
:10030000FFFFFFFFFFFFFFFFFFFFFFFFFFFFFFFFFD
:10031000FFFFFFFFFFFFFFFFFFFFFFFFFFFFFFFFED
:10032000FFFFFFFFFFFFFFFFFFFFFEF8F0E0C081D0
:10033000030707010000203C7F7F7FFFFFFFFF7F57
:1003400001000000F8FFFFFFFFFFFFFFFFFF3F007E
:10035000000000FFFFFFFF7F3F0000000007038059
:10036000C0E0F0FCFFFFFFFFFFFFFFFFFFFFFFFF0D
:10037000FFFFFFFFFFFFFFFFFFFFFFFFFFFFFFFF8D
:10038000FFFFFFFFFFFFFFFFFFFFFFFFFFFFFFFF7D
:10039000FFFFFFFFFFFFFFFFFFFFFFFFFFFFFFFF6D
:1003A000FFFFFFFFFFFFFFFFFFFFFFFFFFFFFFFF5D
:1003B000FFFEFCFCFCFCF8F8F8F0F0F0F0F0E0E0F8
:1003C000E0E0E0E0E1E1C1C1C3C3C3C3C3C3C0C057
:1003D000C0C0C1C1E1E0E0F0F0F8F8FCFEFEFFFFB4
:1003E000FFFFFFFFFFFFFFFFFFFFFFFFFFFFFFFF1D
:1003F000FFFFFFFFFFFFFFFFFFFFFFFFFFFFFFFF0D
:10040000FFFFFFFFFFFFFFFFFFFFFFFFFFFFFFFFFC
:10041000FFFFFFFFFFFFFFFFFFFFFFFFFFFFAE201C
:1004200000C840817FA1A6A83FD300D580D922DA99
:1004300012DB208D14A4AF0011241FBECFE5D2E043
:10044000DEBFCDBFCAD0DFC0DBCDBB9AC39A2FEFD2
:1004500089E698E1215080409040E1F700C000001B
:10046000C3982FEF84E39CE0215080409040E1F757
:1004700000C00000EBCFB89ABA9AC29AC09A80EF37
:100480008EB98AE28DB90895C098C298C09A08952D
:10049000C29AC09A08959EB1982B9EB9769B06C0C9
:1004A0008EB1806F8EB980E88FB90895689AF6CFC3
:1004B000B898C29A88B3C298B89A817008958FB9D3
:1004C00080E0E9DFF5CFE0DF88E7F9CFCF93DF9376
:1004D000FADF80E0F4DFCEE1D4E0FE018491EFDFCB
:1004E0002196F4E0C733DF07C1F7DF91CF91D0CF7A
:1004F000CFCFEF92FF920F931F93CF93DF937C01A7
:100500008B01E1DF80E0DBDFE80100E010E00E15A9
:100510001F053CF0DF91CF911F910F91FF90EF905D
:10052000B7CF8991CCDF0F5F1F4FF1CFEF92FF92D2
:100530000F931F93CF93DF937C018B01C4DF80E483
:10054000BEDFE80100E010E00E151F053CF0DF9172
:10055000CF911F910F91FF90EF909ACF8991AFDFCC
:100560000F5F1F4FF1CFEF92FF920F931F93CF9327
:10057000DF938C017B01A7DF80E4A1DFC0E0D0E046
:10058000C017D1073CF0DF91CF911F910F91FF90E1
:10059000EF907ECFF701EC0FFD1F849190DF219645
:1005A000EFCFCF93DF938FDF80E489DFC0E0D4E02B
:1005B00080E085DF2197E1F7DF91CF9169CF83DF7D
:1005C00080E47DDF8FEF7BDF80E079DF8FEF77DF07
:1005D00080E075DF8FEF73DF5BCF80E886BD16BCF0
:1005E0004ADF74DF6EE170E080E094E0BCDF2FEF63
:1005F00083ED90E3215080409040E1F700C000007F
:0A060000D0DFDDDF22DFF894FFCF2A
:00000001FF
