:100000001BC02DC02CC02BC02AC029C028C027C0AF
:1000100026C025C024C023C022C021C020C0AE20DD
:1000200000C840817FA1A6A83FD300D580D922DA9D
:1000300012DB208D14A4AF0011241FBECFE5D2E047
:10004000DEBFCDBF10E0A0E6B0E0EAEDF4E002C014
:1000500005900D92A039B107D9F739D13CC2D0CF64
:10006000BC9AC49A0895C4980895853108F0F8CFD1
:10007000FACFCF93DF93C62F880F880F880F67E0E2
:10008000680FE1D061E06C0F8C2FCDD05ED080E4A2
:1000900053D0C8E0D0E08FEF4FD02197E1F7DF9148
:1000A000CF9168C0DB01FC0160E070E06A177B075C
:1000B0000CF0089584812081280F20833181380F2E
:1000C000318395814281490F42835381590F538374
:1000D0005F3310F4411102C0919595833F3710F4BE
:1000E000211102C0819584836F5F7F4F3696DECFEA
:1000F000B89ABA9AC09AC29A8AE28DB980EF8EB93C
:100100008FEF8FB90895C098C298C09A0895C29A87
:10011000C09A0895806F8EB976990895689AFCCF39
:10012000B8981FB88EE0F6DFB89A90B38FEF8FB90A
:1001300081E0911180E008958FB980E0EBDFF0DF7E
:10014000811102C0BC9AC49A0895DDDF88E7F4CF1C
:10015000CF93DF93FADF80E0EFDFCEE1D0E0FE0166
:100160008491EADF2196F0E0C733DF07C1F7DF9122
:10017000CF91CDCFCCCFEF92FF920F931F93CF9320
:10018000DF937C018B01E1DF80E0D6DFE80100E056
:1001900010E00E151F053CF0DF91CF911F910F91DC
:1001A000FF90EF90B4CF8991C7DF0F5F1F4FF1CF62
:1001B000EF92FF920F931F93CF93DF937C018B01FC
:1001C000C4DF80E4B9DFE80100E010E00E151F0590
:1001D0003CF0DF91CF911F910F91FF90EF9097CF5F
:1001E0008991AADF0F5F1F4FF1CFEF92FF920F931C
:1001F0001F93CF93DF938C017B01A7DF80E49CDF0B
:10020000C0E0D0E0C017D1073CF0DF91CF911F9143
:100210000F91FF90EF907BCFF701EC0FFD1F8491C2
:100220008BDF2196EFCFCF93DF93D82FC62F8DDFB3
:1002300080E082DF82E280DF8D2F7EDF8C2F7CDF0B
:10024000DF91CF9164CFCF93DF93D82FC62F7DDF7F
:1002500080E072DF81E270DF8D2F6EDF8C2F6CDF2C
:10026000DF91CF9154CFCF93DF936FE780E0EBDF47
:1002700067E080E0D8DF69DF80E45EDFC0E0D4E0E3
:1002800080E05ADF2197E1F7DF91CF9140CF6FE710
:1002900080E4D9DF63E083E0C6DF57DF80E44CDF32
:1002A0008FEF4ADF80E048DF8FEF46DF80E044DFFA
:1002B0008FEF42DF2CCF87B1836287B986B1866822
:1002C00086B90895369A369BFECF85B10895CDB78D
:1002D000DEB7C056D1090FB6F894DEBF0FBECDBF52
:1002E00080E886BD16BC86E0E0E6F0E0DE01A55AB7
:1002F000BF4F01900D928A95E1F786E0E6E6F0E0C7
:10030000DE01AB5ABF4F01900D928A95E1F786E06E
:10031000ECE6F0E0DE01A15BBF4F01900D928A9503
:10032000E1F786E0E2E7F0E0DE01A75BBF4F019076
:100330000D928A95E1F786E0E8E7F0E0DE01AD5B3B
:10034000BF4F01900D928A95E1F786E0EEE7F0E06D
:10035000DE01DD9601900D928A95E1F786E0E4E8F2
:10036000F0E0DE01D79601900D928A95E1F786E0E4
:10037000EAE8F0E0DE01D19601900D928A95E1F76E
:1003800086E0FE01E55AFF4F9E012F5F3F4F790146
:10039000D90101900D928A95E1F786E0FE01EB5AB2
:1003A000FF4FDE01179601900D928A95E1F786E0E6
:1003B000FE01E15BFF4FDE011D9601900D928A95D3
:1003C000E1F786E0FE01E75BFF4FDE015396019007
:1003D0000D928A95E1F786E0FE01ED5BFF4FDE01AD
:1003E000599601900D928A95E1F786E0FE01FD96FF
:1003F000DE015F9601900D928A95E1F786E0FE019D
:10040000F796DE01959601900D928A95E1F786E0C8
:10041000FE01F196DE019B9601900D928A95E1F71F
:1004200067DE96DE48DF1FDF1BDE3FEF84E39CE0E4
:10043000315080409040E1F700C0000014DEEFEF43
:10044000F4E32CE0E150F0402040E1F700C0000070
:1004500047016E0131E3C30ED11CAA24A394B12C31
:1004600074DE80E469DEE12CF12C2CDFFEDD9E2DB4
:1004700020E030E080E08401F8014081F41680F053
:1004800041814F1568F04281941750F0438149171C
:1004900038F0A501022E01C0440F0A94EAF7842B1C
:1004A0000A5F1F4F0C151D0539F72F5F3F4F9F5FE8
:1004B0002830310501F740DEF394F0E8FF12D5CF84
:1004C00028E0E20E30E4E312CFCF54DE68E070E0C3
:0A04D000C401E8DDC5CFF894FFCFAA
:1004DA000110000700010A113239000112190D1426
:1004EA0000FF1B22282F00FF3239282F0001464D1A
:1004FA001E2500FF1E25323900015057141B020227
:00000001FF
