:10000000DDC2F7C2F6C2F5C2F4C2F3C2F2C2F1C257
:10001000F0C2EFC2BAC7EDC2ECC2EBC2EAC26E6573
:1000200077200073636F7265200073657373696F67
:100030006E20626573742000616C6C2074696D655C
:100040002062657374200067616D65206F7665724C
:1000500000736E616B6500055C0105570105520177
:10006000054D01044901044501044001043C01011E
:100070003B01033801043401033101072A0105253E
:1000800001052001041C01051701051201040E01E0
:1000900005090105040105FF0007F80005F3000547
:1000A000EE0004EA0000EA0002E80004E40004E0D4
:1000B0000004DC0003D90004D50003D20004CE0004
:1000C00004CA0004C60078848478489494786894BC
:1000D000946804F40C789494609C94646058FC4098
:1000E00048849468C8A4A49808FCC4A4948C040808
:1000F000F0080484483048840C30C030C0300C0C08
:1001000030C0300C7C8080807C0404FC0404489463
:10011000A448FC242424D87884A444B8FC242418BB
:100120007884848478FC0C30C0FCFC0C30C0300C2B
:10013000FCFC8080FC304884C0807CFCFC1010FCFF
:10014000788484A4E8FC141404FC949484FC8484CF
:1001500084787884848448FC94949468C0302C30EB
:10016000C0089B01089301088B01088301087301F3
:10017000087B018181818181818181FF00000000F4
:100180000000FFFF818199998181FFFF8181818139
:100190008181FF8142241008244281000000000078
:1001A000000000E0E0E0E0F0F8FF7F3F1F8FC7C7EE
:1001B000CFCFCF8F8F8F8F9F1F3F7F7F7FFFFFFF1F
:1001C000FFFFFFFFFF1F1F1F1F1F1F1F3F3F3FFF9F
:1001D000FFFFFFFFFFFFFFFFFFFFFFFFFFFFFFFF2F
:1001E000FFFFFFFFFF7F7F7F7F7FFFFFFFFFFFFF9F
:1001F000FFFFFFFFFFFFFFFFFFFFFFFFFFFFFFFF0F
:10020000FFFFFFFFFFFF7F7F7F7F7F7F7F7F7F7FFE
:10021000FFFFFFFFFFFFFFFFFFFFFFFFFFFFF8F004
:10022000E0E0E0FFFFFFFFFFFFFF000000FFFFFF38
:10023000FFFFFFFFFFFFFFFFFFFF030000000103C1
:10024000030303010000FEFEFFFFFFFEFEFE0000B1
:1002500003070F9F9F9F9F9F9F9F9F9F9F9F9F9F72
:100260009F8F87830178FCFEFEFEFEFFFFFDFBF7FC
:10027000E7070F1F1F1F1F9F9F9FBF7F7F7F7F3F2E
:100280001F0F0703C1E0F0F8FCFCFCFCFCFCFCFCCD
:10029000FCFCFCFCF8F0E0C103071F7FFFFFFFFF41
:1002A000FFFFFFFFFFFFFFFFFFFFFC0000FFFFFF5F
:1002B000FFFFFFFFFFFFFFFFFFFFC0000000000088
:1002C0000000000000C0FFFFFFFFFFFFFFFF000076
:1002D00000FEFFFFFFFFFFFFFFFF1F0F07070707DE
:1002E000070707070F000001FFFFFFFFFFFFFFFFEA
:1002F000FFF00000001E3FFFFFFFFFFFFEFCF8C005
:100300000000C0F8FFFFFFFFFFFFFFFF7F030100BA
:100310000000000103FFFFFFFFFEFCF8F3870F0F53
:100320000FFFFFFFFFFFFFFFFFFF3F0000FFFFFF8B
:10033000FFFFFFFFFFFFFFFFFFFFFF7F3E1E1E1EB1
:100340001E3E7EFEFFFFFFFFFFFFFFFFFFFF0000DF
:1003500000FFFFFFFFFFFFFFFFFFFEFCF8F8F0F0DC
:10036000F0F0F8F8FCFC78001FFFFFFFFFFFFFFF35
:100370007F0F000000000001FFFFFFFFFFFFFFFFF6
:100380000000FFFFFFFFFFFFFFFFFFFF0000000077
:1003900000000000FCFFFFFFFFFFFFFFFFFF00006A
:1003A000E0FFFFFFFFFFFFFFFFFF0000003FFFFF39
:1003B000FFFFFFFFFFFFFFFFFFFFFF000000000048
:1003C000000000FFFFFFFFFFFFFFFFFFFFFF000038
:1003D00000FFFFFFFFFFFFFFFFFFFFC381000000E3
:1003E0000000000000000080003F7FFFFFFFFFF0E3
:1003F000E0C0C04040201000FFFFFFFFFFFFFFFFF5
:100400000000030F1F3F7FFFFFFFFFC080000000C1
:100410000080C0F8FFFFFFFFFFFFFF7F3F0F00F0EE
:10042000FFFFFFFFFFFFFFFFFFFF00000000FFFFD8
:10043000FFFFFFFFFFFFFFFFFFFFFF0000000000C7
:10044000000000FFFFFFFFFFFFFFFFFFFFFF0000B7
:10045000000103070707070F8F8F8F878F8F8F8FFD
:100460008F8F8F8F8F8787E3F0F8F8F8F8F8F9F11E
:10047000F1F1F0F0F0F0E0C000071F3F7FFFFFFF59
:10048000FEFCF8F8F8F8FC7E3D03070787C7C7C7EE
:10049000C7C7C7C7E3E1E1E1E0F0F8FCFEFFFFFFFB
:1004A000FFFFFFFFFFFFFFFFFFFFFEF0E0C0878FB2
:1004B0009FBFBFBFBFFFFFFFBF878780C0E0E0E0F7
:1004C000E0C08F9FBFBFBFBFBFBFBF9F8F8780C030
:1004D000E0FCFEFFFFFFFFFFFFFFFFFFFFFFFFFF4F
:1004E000FFFFFFFFFFFFFFFFFFFFFFFFFFFFFFFF1C
:1004F000FFFFFFFFFFFFFFFFFFFEFCF8F8F8F8F833
:10050000F8F8F0F0F0F0F0F0F8FCFEFFFFFFFFFF6E
:10051000FFFFFFFFFFFFFFFFFFFFFFFFFFFFFFFFEB
:10052000FFFFFF030303070FFFFFFFFFFFFFFFFFB7
:10053000FFFFFFFFFFFFFFFFFFFFFFFFFFFFFFFFCB
:10054000FFFFFFFFFFFFFFFFFFFFFFFFFFFFFFFFBB
:10055000FFFFFFFFFFFFFFFFFFFFFFFFFFFFFFFFAB
:10056000FFFFFFFFFFFFFFFFFFFFFFFFFFFFFFFF9B
:10057000FFFFFFFFFFFFFFFFFFFFFFFFFFFFFFFF8B
:10058000FFFFFFFFFFFFFFFFFFFFFFFFFFFFFFFF7B
:10059000FFFFFFFFFFFFFFFFFFFFFFFFFFFF1F0F3B
:1005A000070707AE2000C840817FA1A6A83FD3005F
:1005B000D580D922DA12DB208D14A4AF11241FBEFE
:1005C000CFE5D2E0DEBFCDBF10E0A0E6B0E0EAE6C6
:1005D000F5E102C005900D92A03EB107D9F722E0E7
:1005E000A0EEB0E001C01D92AF30B207E1F72DD50B
:1005F0005FC706CDE091E000F091E1002091E200BC
:100600003091E30081E02E173F0709F40895E0815F
:10061000F0E0EE0FFF1FEC51FF4F8F5FF4CFCF9351
:10062000DF93C0E8D0E0CCD6BE0143D6FC01FF2763
:10063000EE0FFF1FDF01AC51BF4F8C91803821F0CE
:1006400011968C91803879F7EC51FF4F81E88083C7
:100650008183DF91CF910895CDDF482F4150550B15
:100660009A019091F1019417150629F4911519F04A
:1006700089ED90E0D1C39091F0019217130629F40F
:10068000911519F086ED90E0F5CF65E0F2D5911166
:1006900003C083ED90E0EECF80ED90E0EBCFE4EE91
:1006A000F0E080E880838183329691E0E43EF907B0
:1006B000C9F78CE291E09093E3008093E2008CE430
:1006C00091E09093E1008093E00094E290932C01FC
:1006D00084E380932D0190934C0180934D0187E03A
:1006E00090E09093EF018093EE01A3D26FE780E05A
:1006F00076D267E080E065D281E590E0E2D16FE7F5
:1007000080E06DD267E081E05CD288E390E0D9D1EF
:100710008091F101C4D16FE780E061D267E082E0AF
:1007200050D28AE290E0CDD18091F001B8D1C6D20A
:100730000697E9F777D4C90147D671CFCF93DF93F6
:1007400059DFC82F8CED90E067D36FE780E047D288
:1007500067E080E036D287E490E0B3D18091F10188
:100760008C1790F5C093F101C093F0016C2F80912C
:10077000FA019091FB01BFD16FE780E030D267E0D2
:1007800081E01FD28EE190E09CD188E390E099D186
:10079000D2E06FE780E023D267E08D2F12D283E2B0
:1007A00090E08FD18C2F7BD189D2069701F52FD382
:1007B0002FEF84E39CE0215080409040E1F700C09F
:1007C0000000DF91CF916BCF8091F001D1E08C17C9
:1007D00000F7C093F0016FE780E001D267E081E0AD
:1007E000F0D18EE190E06DD18AE290E0D0CF3CD3A1
:1007F000DBCFAF92BF92CF92DF92EF92FF920F9337
:100800001F93CF93DF9300D00F92CDB7DEB77C015B
:100810006FE780E0E4D167E080E0D3D1CCD18701FD
:10082000F12C88E0C82ED12CF8018081803861F449
:10083000818143E050E061E671E0803871F043E08F
:1008400050E067E671E009C0813861F58181813847
:10085000B1F743E050E064E671E0CE010196BFD508
:10086000E12C8981E81640F1A12CB12C89819601F7
:10087000281B3109A216B3063CF1F3940E5F1F4FFB
:1008800030E8F312D1CF9CD10F900F900F90DF91F1
:10089000CF911F910F91FF90EF90DF90CF90BF907D
:1008A000AF9008958F11CBCF818143E050E06AE68D
:1008B00071E087FFD2CFC3CFEA81FB81EE0DF11D3E
:1008C000849160D1E394CDCF80E05CD1FFEFAF1A8B
:1008D000BF0ACCCF1F93CF93DF9300D00F92CDB739
:1008E000DEB780528B3568F4E82F880FFF0BE65A8D
:1008F000F54F099443E050E067E570E0CE010196C2
:100900006ED559D110E08981181708F4C0C080E075
:1009100039D180E037D154D10F900F900F90DF91F3
:10092000CF911F91089543E050E06AE570E0E6CF73
:1009300043E050E06DE570E0E1CF43E050E060E679
:1009400070E0DCCF43E050E063E670E0D7CF43E0F7
:1009500050E066E670E0D2CF43E050E069E670E038
:10096000CDCF43E050E06CE670E0C8CF43E050E00C
:100970006FE670E0C3CF43E050E062E770E0BECFC7
:1009800043E050E065E770E0B9CF43E050E068E74E
:1009900070E0B4CF43E050E06BE770E0AFCF43E0EE
:1009A00050E06EE770E0AACF43E050E061E870E00D
:1009B000A5CF43E050E064E870E0A0CF43E050E012
:1009C00067E870E09BCF43E050E06AE870E096CFC4
:1009D00043E050E06DE870E091CF43E050E060E923
:1009E00070E08CCF43E050E063E970E087CF43E0F4
:1009F00050E066E970E082CF43E050E069E970E0E2
:100A00007DCF43E050E06CE970E078CF43E050E008
:100A10006FE970E073CF43E050E062EA70E06ECFC0
:100A200043E050E065EA70E069CF43E050E068EAF7
:100A300070E064CF43E050E06BEA70E05FCF43E0EA
:100A400050E06EEA70E05ACF43E050E061EB70E0B6
:100A500055CF43E050E064EB70E050CF43E050E00E
:100A600067EB70E04BCF43E050E06AEB70E046CFBD
:100A700043E050E06DEB70E041CF43E050E060ECCC
:100A800070E03CCF43E050E063EC70E037CFEA81A8
:100A9000FB81E10FF11D849175D01F5F34CFCF939F
:100AA000DF932AE0622FE5D3C92FE3D3D92F805DEE
:100AB00011DF80E38D0F0EDF80E38C0FDF91CF918C
:100AC00009CFEF92FF920F931F93CF938C0190D495
:100AD0007C01C0E0EC2FF0E0CE151F0434F0CF9184
:100AE0001F910F91FF90EF900895E00FF11F8491F7
:100AF000F1DECF5FEFCF9C01F894E199FECF1CBAF5
:100B00003FBB2EBB6DBBE29AE19A789408959C019D
:100B1000F894E199FECF3FBB2EBBE09A78948DB359
:100B20000895B89ABA9AC29AC09A8FEF8FB98AE29A
:100B30008DB980EE8EB90895C09AC29AC29BFECF3D
:100B4000C098C298C09A0895C098C29AC29BFECF1E
:100B5000C09A0895C2988EB9769B04C080B39FEF67
:100B60009FB90895689A82E08A95F1F700C0689A63
:100B700082E08A95F1F700C0EFCFB8988EEFEADFF8
:100B8000B89A08958FB980EFE5DFF7CFD5DF88E712
:100B9000F9DF80E0F7CFCF93DF93F8DFC3EAD5E04A
:100BA000FE018491EFDF2196F5E0C03CDF07C1F73D
:100BB000DF91CF91C9CFC0DF88E7E4DF80E4E2CFE7
:100BC000C3CFCF93DF93D82FC62FE0DF82E2DADFE7
:100BD0008D2FD8DF8C2FD6DFDF91CF91B5CFCF937C
:100BE000DF93D82FC62FD2DF81E2CCDF8D2FCADF73
:100BF0008C2FC8DFDF91CF91A7CFEF92FF920F9399
:100C00001F93CF93DF938C017B01D5DFC0E0D0E051
:100C1000C017D1073CF0DF91CF911F910F91FF904A
:100C2000EF9092CFF701EC0FFD1F8491ABDF21967F
:100C3000EFCFCF93DF936FE780E0D1DF67E080E015
:100C4000C0DFB9DFC0E0D4E080E09CDF2197E1F7AE
:100C5000DF91CF9179CF6FE780E4C1DF63E083E07C
:100C6000B0DFA9DF8FEF8EDF80E08CDF8FEF8ADFD0
:100C700080E088DF8FEF86DF67CF67E080E0A1DF6D
:100C80006FE780E0ACDF63EA71E080E094E0B5CF2D
:100C900086B1866886B9089525E080E090E0369AAE
:100CA000369BFECF44B135B1532F840F951F2A9543
:100CB000B1F765E070E0E9D2CB010895DF92EF92E1
:100CC000FF920F931F93CF93DF93399A389808ECD4
:100CD00010E0D12CE12CF12CF894DEDFEC017894BB
:100CE000805B9240879738F4D3948AE0D816A8F0B6
:100CF00085E090E017C0CE018A529140879738F482
:100D0000E3948AE0E81648F086E090E00BC025976F
:100D100020F4F3948AE0F81668F401501040E1F6EC
:100D200088E090E0DF91CF911F910F91FF90EF90BD
:100D3000DF90089587E090E0F5CFBF92CF92DF92E9
:100D4000EF92FF920F931F93CF93DF9387B183604E
:100D500087B908EC10E0B12CC12CD12CE12CF12C7E
:100D6000F8949ADFEC0178948F539340879738F486
:100D7000B3948AE0B81668F180E090E02FC0CE010D
:100D8000805C9240879738F4C3948AE0C81608F1D3
:100D900081E090E023C0CE01805F9140879738F4D6
:100DA000E3948AE0E816A8F083E090E017C0CE0153
:100DB00089539140879738F4D3948AE0D81648F045
:100DC00082E090E00BC0259720F4F3948AE0F816B7
:100DD00078F40150104021F688E090E0DF91CF9147
:100DE0001F910F91FF90EF90DF90CF90BF900895EB
:100DF00087E090E0F3CF80B7866680BF1FBC089580
:100E00008DBD86958EBDB99A0895B99808951092B2
:100E1000060210920502F9CFCF93DF93D82FC92F86
:100E2000F6DFD0930502C093060210920402FAD0B6
:100E30002093FC013093FD014093FE015093FF018C
:100E40006093000270930102809302029093030268
:100E5000DF91CF91089581E0209105023091060243
:100E6000232B09F480E008952F923F924F925F92D6
:100E70006F927F928F929F92AF92BF92CF92DF92AA
:100E8000EF92FF920F931F93CF93DF9300D000D088
:100E9000CDB7DEB78091050290910602892B09F447
:100EA00052C0C0D0322E432E542E652E762E7C8317
:100EB0008B83292E8090050290900602D4010D901C
:100EC000BC91A02DBA83A983E0910402A090FC01FB
:100ED000B090FD01C090FE01D090FF01E0900002B3
:100EE000F0900102009102021091030201D28D01E3
:100EF0000E0F111D0E0F111DD8011196AC90B12CC3
:100F0000C12CD12CE12CF12C00E010E0FAD1A8F09A
:100F1000EF5FE09304023092FC014092FD01509299
:100F2000FE016092FF0170920002BC81B093010249
:100F3000FB81F093020220920302D40112968C915D
:100F4000E817C8F064DF80E00F900F900F900F90CB
:100F5000DF91CF911F910F91FF90EF90DF90CF9095
:100F6000BF90AF909F908F907F906F905F904F90C9
:100F70003F902F900895A981BA81AE0FB11DAE0F99
:100F8000B11D8C913DDF81E0DFCF0F920FB60F9244
:100F90001F9211242F933F934F935F936F937F93EF
:100FA0008F939F93AF932091070230910802409155
:100FB000090250910A0260910B0270910C0280911B
:100FC0000D0290910E02A1E087D120930702309389
:100FD00008024093090250930A0260930B02709337
:100FE0000C0280930D0290930E02AF919F918F910E
:100FF0007F916F915F914F913F912F911F900F9033
:101000000FBE0F9018951ABC13BE8AB582608ABDB8
:1010100083B7856083BF83EC89BD12BE89B78061C9
:1010200089BF0895F89420910702309108024091F9
:10103000090250910A0260910B0270910C0280919A
:101040000D0290910E027894089500D000D0CDB793
:10105000DEB780E886BD16BCD6DFCDDE19DE61DDE9
:101060009ADDE7DD2BDE059749F467DE039731F45F
:1010700060E08091FA019091FB013DDD8091FA01E1
:101080009091FB0144DD8093F10109DB87E090E062
:101090009093EF018093EE01C5DF2093F20130932E
:1010A000F3014093F4015093F5016093F6017093BE
:1010B000F7018093F8019093F901B4DF19012A0137
:1010C0004B018C839B83A090F201B090F301C09000
:1010D000F401D090F501E090F601F090F701009155
:1010E000F8011091F90104D1A6E014D150F18091DA
:1010F000EE019091EF0183309105C1F148F4813008
:101100009105B9F14FEF029709F441E010E033C0C7
:101110008530910509F482C041E0069759F120928B
:10112000F2013092F3014092F4015092F501809265
:10113000F6019092F7018C818093F8019B81909346
:10114000F901BCDD89839A83F8DD3C0189819A81AC
:10115000059709F084C087E090E09093EF018093B9
:10116000EE0184EE90E045DB7FDEA7CF40E01FEF8D
:1011700002C040E011E0E091E200F091E3009F0145
:10118000245E304035952795C90160E170E091D02B
:10119000810F37FF02C0215F3F4F54E035952795FF
:1011A0005A95E1F7240F8F702770922F9295907FB8
:1011B000980F092F10E0A801440F551FDA01AC5118
:1011C000BF4F3C91303861F511966C91603851F504
:1011D00030E094E0220F331F9A95E1F7280F311D7C
:1011E000C901880F991F2083FC01EC51FF4F208318
:1011F0002183F093E300E093E200E091E000F091BE
:10120000E100808190E0880F991F8C519F4F61838E
:1012100060839093E1008093E00081CF4FEFA7CFF0
:10122000313839F0DA01AC51BF4F11968C918138C9
:10123000A1F4DA01AC51BF4F808111968C931197C4
:101240009083000F111F0C511F4F1093E300009368
:10125000E2009C93E4D900DA62CF70DA60CFC30178
:101260000797029708F47DCF7092EF016092EE012C
:1012700078CF992778E0880F991F961708F0961B6A
:10128000881F7A95C9F780950895AA1BBB1B51E169
:1012900007C0AA1FBB1FA617B70710F0A61BB70BE6
:1012A000881F991F5A95A9F780959095BC01CD018B
:1012B000089597FB072E16F4009406D077FD08D00A
:1012C000E4DF07FC05D03EF4909581959F4F08958B
:1012D000709561957F4F08950024A7FD00942A0F13
:1012E000301D401D501D601D701D801D901D0895F6
:1012F0002A193B094C095D096E097F09800B910B86
:1013000008952A153B054C055D056E057F05800790
:10131000910708950024A7FD00942A173005400581
:101320005005600570058005900508958F929F9285
:10133000AF92BF92CF92DF92EF92FF92CF93DF9363
:10134000EC01688179818A819B8161157105810534
:10135000910521F464E279ED8BE597E02DE133EF1F
:1013600041E050E067D049015A0127EA31E440E00A
:1013700050E047D06B017C012CEE34EF4FEF5FEF74
:10138000C501B4013ED0DC01CB018C0D9D1DAE1D0D
:10139000BF1DB7FF03C00197A109B0488883998397
:1013A000AA83BB839F77DF91CF91FF90EF90DF906F
:1013B000CF90BF90AF909F908F900895B7DF089522
:1013C0008CEC90E0B3DF0895B0E0A0E08093CC0017
:1013D0009093CD00A093CE00B093CF000895FB0171
:1013E000DC0102C005900D9241505040D8F708959D
:1013F000FC0105900020E9F7809590958E0F9F1FC6
:101400000895EE27FF27AA27BB2708C0A20FB31F06
:10141000E41FF51F220F331F441F551F9695879514
:101420007795679598F37040A9F7009799F7BD01F4
:10143000CF010895052E97FB16F400940FD057FDA9
:1014400005D014D007FC02D046F408C05095409552
:10145000309521953F4F4F4F5F4F08959095809560
:10146000709561957F4F8F4F9F4F0895A1E21A2E7F
:10147000AA1BBB1BFD010DC0AA1FBB1FEE1FFF1F38
:10148000A217B307E407F50720F0A21BB30BE40B88
:10149000F50B661F771F881F991F1A9469F76095CF
:1014A0007095809590959B01AC01BD01CF01089589
:1014B000F894FFCFB5CA25CA24CA23CA22CA21CAB2
:1014C00020CA1FCA1ECA1DCA1CCA1BCA1ACA19CAE8
:1014D00018CA17CAD7CAA9CAADCAB1CAB5CAB9CA41
:1014E000BDCAC1CAC5CAC9CA0CCA0BCA0ACA09CA76
:1014F00008CA07CA06CA05CA04CA03CA02CA01CA78
:1015000000CAFFC9FEC9FDC9FCC9FBC9FAC9F9C9AE
:10151000F8C9F7C9F6C9F5C9F4C9F3C9F2C9F1C9DF
:10152000F0C9EFC9EEC9EDC9ECC9EBC9EAC9E9C90F
:10153000E8C9E7C9E6C9DEC9F6C9FAC9FEC902CADF
:1015400006CA0ACA0ECA12CA16CA1ACA1ECA22CAAB
:1015500026CA2ACA2ECA32CA36CA3ACA3ECA42CA9B
:0A15600046CA4ACA4ECA52CA56CA09
:10156A00770C8E04770C770C8E04EF08B3089F086B
:10157A008E0877109F08B3089F08B3087F088E0863
:10158A007F088E087718EF04D504EF04D504EF041A
:10159A00D504EF04D504BE04B304BE04B304BE04E8
:1015AA00B304BE04B3049F048E049F048E049F04F4
:1015BA008E049F048E0477108E0477107F0C9F0C84
:1015CA00BE04EF04D504EF04D504EF0801000000BF
:1015DA0060000366000774000986001BBC0008004F
:00000001FF
