:100000001BC235C234C233C232C231C230C22FC267
:100010002EC22DC2D6C52BC22AC229C228C2E0E0F8
:10002000E0E0F0F8FF7F3F1F8FC7C7CFCFCF8F8FA4
:100030008F8F9F1F3F7F7F7FFFFFFFFFFFFFFFFF30
:100040001F1F1F1F1F1F1F3F3F3FFFFFFFFFFFFF20
:10005000FFFFFFFFFFFFFFFFFFFFFFFFFFFFFFFFB0
:100060007F7F7F7F7FFFFFFFFFFFFFFFFFFFFFFF20
:10007000FFFFFFFFFFFFFFFFFFFFFFFFFFFFFFFF90
:10008000FF7F7F7F7F7F7F7F7F7F7FFFFFFFFFFF80
:10009000FFFFFFFFFFFFFFFFFFF8F0E0E0E0FFFFE3
:1000A000FFFFFFFFFF000000FFFFFFFFFFFFFFFF5D
:1000B000FFFFFFFFFF030000000103030303010034
:1000C00000FEFEFFFFFFFEFEFE000003070F9F9FE6
:1000D0009F9F9F9F9F9F9F9F9F9F9F9F8F87830112
:1000E00078FCFEFEFEFEFFFFFDFBF7E7070F1F1F7C
:1000F0001F1F9F9F9FBF7F7F7F7F3F1F0F0703C1F2
:10010000E0F0F8FCFCFCFCFCFCFCFCFCFCFCFCF85F
:10011000F0E0C103071F7FFFFFFFFFFFFFFFFFFFAF
:10012000FFFFFFFFFFFC0000FFFFFFFFFFFFFFFFE0
:10013000FFFFFFFFFFC00000000000000000000004
:10014000C0FFFFFFFFFFFFFFFF000000FEFFFFFFFC
:10015000FFFFFFFFFF1F0F07070707070707070F2F
:10016000000001FFFFFFFFFFFFFFFFFFF0000000A7
:100170001E3FFFFFFFFFFFFEFCF8C00000C0F8FFBE
:10018000FFFFFFFFFFFFFF7F0301000000000103EF
:10019000FFFFFFFFFEFCF8F3870F0F0FFFFFFFFFCE
:1001A000FFFFFFFFFF3F0000FFFFFFFFFFFFFFFF1D
:1001B000FFFFFFFFFFFF7F3E1E1E1E1E3E7EFEFF57
:1001C000FFFFFFFFFFFFFFFFFF000000FFFFFFFF3C
:1001D000FFFFFFFFFFFEFCF8F8F0F0F0F0F8F8FC8E
:1001E000FC78001FFFFFFFFFFFFFFF7F0F000000F5
:1001F000000001FFFFFFFFFFFFFFFF0000FFFFFF09
:10020000FFFFFFFFFFFFFF0000000000000000FCF9
:10021000FFFFFFFFFFFFFFFFFF0000E0FFFFFFFF0B
:10022000FFFFFFFFFF0000003FFFFFFFFFFFFFFF9B
:10023000FFFFFFFFFFFF0000000000000000FFFFC6
:10024000FFFFFFFFFFFFFFFFFF000000FFFFFFFFBB
:10025000FFFFFFFFFFFFC381000000000000000060
:10026000000080003F7FFFFFFFFFF0E0C0C0404084
:10027000201000FFFFFFFFFFFFFFFF0000030F1F25
:100280003F7FFFFFFFFFC0800000000080C0F8FF3D
:10029000FFFFFFFFFFFF7F3F0F00F0FFFFFFFFFFAC
:1002A000FFFFFFFFFF00000000FFFFFFFFFFFFFF5A
:1002B000FFFFFFFFFFFF0000000000000000FFFF46
:1002C000FFFFFFFFFFFFFFFFFF0000000103070725
:1002D00007070F8F8F8F878F8F8F8F8F8F8F8F8FC6
:1002E0008787E3F0F8F8F8F8F8F9F1F1F1F0F0F0B9
:1002F000F0E0C000071F3F7FFFFFFFFEFCF8F8F8AB
:10030000F8FC7E3D03070787C7C7C7C7C7C7C7E352
:10031000E1E1E1E0F0F8FCFEFFFFFFFFFFFFFFFF80
:10032000FFFFFFFFFFFEF0E0C0878F9FBFBFBFBF93
:10033000FFFFFFBF878780C0E0E0E0E0C08F9FBF86
:10034000BFBFBFBFBFBF9F8F8780C0E0FCFEFFFF66
:10035000FFFFFFFFFFFFFFFFFFFFFFFFFFFFFFFFAD
:10036000FFFFFFFFFFFFFFFFFFFFFFFFFFFFFFFF9D
:10037000FFFFFFFFFEFCF8F8F8F8F8F8F8F0F0F0EF
:10038000F0F0F0F8FCFEFFFFFFFFFFFFFFFFFFFFB5
:10039000FFFFFFFFFFFFFFFFFFFFFFFFFFFF030365
:1003A00003070FFFFFFFFFFFFFFFFFFFFFFFFFFF41
:1003B000FFFFFFFFFFFFFFFFFFFFFFFFFFFFFFFF4D
:1003C000FFFFFFFFFFFFFFFFFFFFFFFFFFFFFFFF3D
:1003D000FFFFFFFFFFFFFFFFFFFFFFFFFFFFFFFF2D
:1003E000FFFFFFFFFFFFFFFFFFFFFFFFFFFFFFFF1D
:1003F000FFFFFFFFFFFFFFFFFFFFFFFFFFFFFFFF0D
:10040000FFFFFFFFFFFFFFFFFFFFFFFFFFFFFFFFFC
:10041000FFFFFFFFFFFFFFFFFF1F0F070707AE20D4
:1004200000C840817FA1A6A83FD300D580D922DA99
:1004300012DB208D14A4AF0011241FBECFE5D2E043
:10044000DEBFCDBF10E0A0E6B0E0ECE0F0E102C01E
:1004500005900D92A43BB107D9F721E0A4EBB0E0E1
:1004600001C01D92AB3DB207E1F70BD4CDC5C8CD9D
:1004700091E0603408F490E087FB882780F9892BAD
:100480000895E0916300F09164009081981303C097
:1004900081E09181961380E00895E0916100F091F0
:1004A0006200209163003091640032972E173F075D
:1004B00011F480E0089590819813F7CF91819613FD
:1004C000F4CF81E008950F931F93CF93DF9300E162
:1004D00010E0C8E0D0E032D5E0916300F091640014
:1004E000B80199D4880F880F880F808327D5E091B1
:1004F0006300F0916400BE018ED4682F660F660F12
:10050000660F61838081C9DF8111E5CFDF91CF91D3
:100510001F910F910895E0916100F09162009F0199
:100520002E5F3F4F309362002093610090916000F6
:100530009F5F9093600082836383C5CF362F082E20
:10054000000C990B60E870E066D4282F87FF02C08A
:1005500020E8280F832F60E43DD497FD905C409104
:1005600060004150550BE4EBF0E060E070E06F5F3D
:100570007F4F32966417750744F0E0916100F09167
:1005800062002083918381E008958281808383814A
:100590008183EDCFCF92DF92EF92FF920F931F9363
:1005A000CF93DF936FE780E03DD167E080E02CD10F
:1005B00025D100E010E0F02EC0E0D0E087E0E82E8A
:1005C000E00EEC2F4091600050E0A4EBB0E060E062
:1005D00070E06417750714F080E028C08C91E8176C
:1005E00008F447C0282F30E0295F3F4F2C173D0704
:1005F0000CF43FC011962C911197F21658F1C22EAF
:10060000D12C37E0C30ED11CC016D10694F1E81BE3
:100610000E2E000CFF0BEB59FF4F808190E03F2D19
:10062000321B02C0959587953A95E2F7CED0219678
:10063000C038D10531F6085F1F4F0034110509F0AD
:10064000BACFDF91CF911F910F91FF90EF90DF9084
:10065000CF90D9C0E21668F0E81B0E2E000CFF0BFD
:10066000EB59FF4F80812F1901C0880F2A95EAF7B7
:10067000DDCF6F5F7F4F1296ACCF4F925F926F923C
:100680007F928F929F92AF92BF92CF92DF92EF9222
:10069000FF920F931F93CF93DF936FE780E0C2D059
:1006A00067E080E0B1D0AAD0E12CF12C46EB51E01C
:1006B00025E630E08DE690E0B42EA52E722E632E56
:1006C000582E492E00E010E024C02081201711068A
:1006D00051F421812E151F0431F4811120C0C52D44
:1006E000942DD92F06C08F5F32969813EECFCB2D65
:1006F000DA2D6E01FE0138964F01F60181916F01EE
:1007000064D0C814D904C9F7085F1F4F0038110519
:1007100049F090916000E4EBF0E080E0E6CFC72D77
:10072000962DDFCFF8E0EF0EF11C80E4E816F1041F
:1007300049F6DF91CF911F910F91FF90EF90DF90DD
:10074000CF90BF90AF909F908F907F906F905F9071
:100750004F9059C0BC9AC49A0895C498089588B31C
:1007600090E1892788BB0895B89ABA9AC29AC09A2C
:100770008FEF8FB98AE28DB980EE8EB90895C09A55
:10078000C29AC29BFECFC098C298C09A0895C098E2
:10079000C29AC29BFECFC09A0895C2988EB9769B2A
:1007A00004C080B39FEF9FB90895689A82E08A954C
:1007B000F1F700C0689A82E08A95F1F700C0EFCFA8
:1007C000B8988EEFEADFB89A08958FB980EFE5DF29
:1007D000F7CFD5DF88E7F9DF80E0F7CFCF93DF935E
:1007E000F8DFCEE1D4E0FE018491EFDF2196F4E062
:1007F000CB33DF07C1F7DF91CF91C9CFC0DF88E7E7
:10080000E4DF80E4E2CFC3CFCF93DF93D82FC62FAE
:10081000E0DF82E2DADF8D2FD8DF8C2FD6DFDF91A9
:10082000CF91B5CFCF93DF93D82FC62FD2DF81E200
:10083000CCDF8D2FCADF8C2FC8DFDF91CF91A7CF00
:10084000EF92FF920F931F93CF93DF938C017B0165
:10085000D5DFC0E0D0E0C017D1073CF0DF91CF91E9
:100860001F910F91FF90EF9092CFF701EC0FFD1FBA
:100870008491ABDF2196EFCFCF93DF936FE780E0DA
:10088000D1DF67E080E0C0DFB9DFC0E0D4E080E026
:100890009CDF2197E1F7DF91CF9179CF6FE780E47B
:1008A000C1DF63E083E0B0DFA9DF8FEF8EDF80E0A0
:1008B0008CDF8FEF8ADF80E088DF8FEF86DF67CF06
:1008C00067E080E0A1DF6FE780E0ACDF6EE170E021
:1008D00080E094E0B5CF86B1866886B9089525E0BA
:1008E00080E090E0369A369BFECF44B135B1532F6D
:1008F000840F951F2A95B1F765E070E078D2CB019F
:100900000895DF92EF92FF920F931F93CF93DF939F
:10091000399A389808EC10E0D12CE12CF12CF8949D
:10092000DEDFEC017894805B9240879738F4D394B3
:100930008AE0D816A8F085E090E017C0CE018A5270
:100940009140879738F4E3948AE0E81648F086E00F
:1009500090E00BC0259720F4F3948AE0F81668F431
:1009600001501040E1F688E090E0DF91CF911F91B7
:100970000F91FF90EF90DF90089587E090E0F5CF22
:10098000BF92CF92DF92EF92FF920F931F93CF937C
:10099000DF9387B1836087B908EC10E0B12CC12CDC
:1009A000D12CE12CF12CF8949ADFEC0178948F5340
:1009B0009340879738F4B3948AE0B81668F180E0E2
:1009C00090E02FC0CE01805C9240879738F4C394AA
:1009D0008AE0C81608F181E090E023C0CE01805F74
:1009E0009140879738F4E3948AE0E816A8F083E012
:1009F00090E017C0CE0189539140879738F4D39483
:100A00008AE0D81648F082E090E00BC0259720F4E9
:100A1000F3948AE0F81678F40150104021F688E04B
:100A200090E0DF91CF911F910F91FF90EF90DF90B9
:100A3000CF90BF90089587E090E0F3CF80B78666AF
:100A400080BF1FBC08958DBD86958EBDB99A08954F
:100A5000B99808959093D2018093D1011092D0015A
:100A6000FDD02093C8013093C9014093CA0150932F
:100A7000CB016093CC017093CD018093CE01909314
:100A8000CF0108951092D2011092D101E1CF81E0FF
:100A90002091D1013091D201232B09F480E00895F7
:100AA0002F923F924F925F926F927F928F929F927E
:100AB000AF92BF92CF92DF92EF92FF920F931F936C
:100AC000CF93DF9300D000D0CDB7DEB78091D101B6
:100AD0009091D201892B09F452C0C0D0322E432EFE
:100AE000542E652E762E7C838B83292E8090D10107
:100AF0009090D201D4010D90BC91A02DBA83A9830E
:100B0000E091D001A090C801B090C901C090CA0185
:100B1000D090CB01E090CC01F090CD010091CE01BE
:100B20001091CF0197D18D010E0F111D0E0F111DC8
:100B3000D8011196AC90B12CC12CD12CE12CF12C08
:100B400000E010E090D1A8F0EF5FE093D001309288
:100B5000C8014092C9015092CA016092CB017092C3
:100B6000CC01BC81B093CD01FB81F093CE012092EA
:100B7000CF01D40112968C91E817C8F083DF80E092
:100B80000F900F900F900F90DF91CF911F910F91C9
:100B9000FF90EF90DF90CF90BF90AF909F908F909D
:100BA0007F906F905F904F903F902F900895A98114
:100BB000BA81AE0FB11DAE0FB11D8C9144DF81E043
:100BC000DFCF0F920FB60F921F9211242F933F93F6
:100BD0004F935F936F937F938F939F93AF932091E6
:100BE000D3013091D4014091D5015091D60160914B
:100BF000D7017091D8018091D9019091DA01A1E0DB
:100C00001DD12093D3013093D4014093D50150934B
:100C1000D6016093D7017093D8018093D901909346
:100C2000DA01AF919F918F917F916F915F914F9179
:100C30003F912F911F900F900FBE0F9018951ABCE7
:100C400013BE8AB582608ABD83B7856083BF83EC9B
:100C500089BD12BE89B7806189BF0895F89420913B
:100C6000D3013091D4014091D5015091D6016091CA
:100C7000D7017091D8018091D9019091DA017894CF
:100C8000089500D000D0CDB7DEB780E886BD16BC91
:100C9000D6DFD4DE20DE68DDA1DDEEDDE09161008F
:100CA000F091620080E4808388E181830CDC87E03E
:100CB00090E09093BF018093BE01D0DF2093C001EC
:100CC0003093C1014093C2015093C3016093C401AA
:100CD0007093C5018093C6019093C701BFDF1901CE
:100CE0002A016C837B8389839A83A090C001B09092
:100CF000C101C090C201D090C301E090C401F09046
:100D0000C5010091C6011091C701A4D0A6E0B4D0DE
:100D1000E0F18091BE019091BF0100E010E08730CA
:100D2000910540F4FC01EC55FF4F108183569F4F15
:100D3000FC010081E0916100F0916200110F110F40
:100D4000110F8081180F000F000F000F8181080F15
:100D5000602F812F96DB602F811529F1812FDBDB3E
:100D60008CDC2092C0013092C1014092C2015092AD
:100D7000C301FC81F093C4018B818093C501E9819B
:100D8000E093C601FA81F093C701BBDD4C01F8DDA9
:100D90003C01C40107970297A0F09092BF01809296
:100DA000BE017EDE9BCF812F78DB811531F06FDEB7
:100DB000811103C081EB90E04DDE602F812FBEDBFF
:100DC000CFCFC3010797029760F37092BF01609283
:100DD000BE01E7CF87FB082E062687FD819567FDBC
:100DE000619556D00EF4919507FC81950895AA1B44
:100DF000BB1B51E107C0AA1FBB1FA617B70710F006
:100E0000A61BB70B881F991F5A95A9F78095909537
:100E1000BC01CD01089597FB072E16F4009406D06F
:100E200077FD08D0E4DF07FC05D03EF4909581956E
:100E30009F4F0895709561957F4F08950024A7FDF9
:100E400000942A0F301D401D501D601D701D801D17
:100E5000901D08952A193B094C095D096E097F0907
:100E6000800B910B08952A153B054C055D056E0519
:100E70007F058007910708950024A7FD00942A1795
:100E80003005400550056005700580059005089502
:100E9000992778E0880F991F961708F0961B881FEE
:100EA0007A95C9F7809508958F929F92AF92BF92DD
:100EB000CF92DF92EF92FF92CF93DF93EC016881A4
:100EC00079818A819B81611571058105910521F4E4
:100ED00064E279ED8BE597E02DE133EF41E050E0FE
:100EE00055D049015A0127EA31E440E050E035D0BD
:100EF0006B017C012CEE34EF4FEF5FEFC501B401C5
:100F00002CD0DC01CB018C0D9D1DAE1DBF1DB7FF8C
:100F100003C00197A109B04888839983AA83BB8342
:100F20009F77DF91CF91FF90EF90DF90CF90BF90B0
:100F3000AF909F908F900895B7DF089589E990E072
:100F4000B3DF0895B0E0A0E08093990090939A00F9
:100F5000A0939B00B0939C000895EE27FF27AA273B
:100F6000BB2708C0A20FB31FE41FF51F220F331FBA
:100F7000441F551F969587957795679598F3704010
:100F8000A9F7009799F7BD01CF010895052E97FBAA
:100F900016F400940FD057FD05D014D007FC02D0F2
:100FA00046F408C050954095309521953F4F4F4FDE
:100FB0005F4F089590958095709561957F4F8F4F05
:100FC0009F4F0895A1E21A2EAA1BBB1BFD010DC065
:100FD000AA1FBB1FEE1FFF1FA217B307E407F507E9
:100FE00020F0A21BB30BE40BF50B661F771F881FC5
:100FF000991F1A9469F760957095809590959B015B
:0C100000AC01BD01CF010895F894FFCFB2
:10100C0002B600B400FF818181818181FFFF81A53F
:10101C009999A581FF5A8181818181815A770A8EA4
:10102C0005770A8E0A77058E0A7F0A9F0ABE0AEF99
:10103C0005D505EF05D505EF0501000000FF000102
:10104C000000FF01000100FF00FF017D0003830091
:04105C0003890008FC
:00000001FF
