:100000001BC222C221C220C21FC21EC21DC21CC2EC
:100010001BC21AC219C218C217C216C215C2FFFFEC
:10002000FFFFFFFFFFFFFFFFFFFFFFFFFFFFFFFFE0
:10003000FFFFFFFFFFFFFFFFFFFFFFFF7F7F3F1F70
:100040001F1F0F0F0F0F0F0F0F0F0F0F0F0F0F0FA0
:100050000F1F1F3F3F3F7F7FFFFFFFFFFFFFFFFFA0
:10006000FFFFFFFFFFFFFFFFFFFFFFFFFFFFFFFFA0
:10007000FFFFFFFFFFFFFFFFFFFFFFFFFFFFFFFF90
:10008000FFFFFFFFFFFFFFFFFFFFFFFFFFFFFFFF80
:10009000FFFFFFFFFFFFFFFFFFFFFFFFFFFFFFFF70
:1000A000FFFFFFFFFFFFFFFFFFFFFFFFFFFFFFFF60
:1000B000FFFFFF7F3F1F0F07030301000010101811
:1000C000181C1C3CFEFFFFFFFFFFFF7F3F1F1F1E92
:1000D0001E1C1C1C3878F0F0E0C08103070F1F3F86
:1000E000FFFFFFFFFFFFFFFFFFFFFFFFFFFFFFFF20
:1000F000FFFFFFFFFFFFFFFFFFFFFFFFFFFFFFFF10
:10010000FFFFFFFFFFFFFFFFFFFFFFFFFFFFFFFFFF
:10011000FFFFFFFFFFFFFFFFFFFFFFFFFFFFFFFFEF
:10012000FFFFFFFFFFFFFFFFFFFFFFFFFF7F3F0F0F
:10013000030180E0F000000000E0F8FCFCFEFEFEA1
:10014000FCF8E000000107FF1F07010080E0F8FE57
:10015000FEFCFCF8F0C00001030FFFFFFCF0C00044
:1001600000030F7FFFFFFFFFFFFFFFFFFFFFFFFF0A
:10017000FFFFFFFFFFFFFFFFFFFFFFFFFFFFFFFF8F
:10018000FFFFFFFFFFFFFFFFFFFFFFFFFFFFFFFF7F
:10019000FFFFFFFFFFFFFFFFFFFFFFFFFFFFFFFF6F
:1001A000FFFFFFFFFFFFFFFFFFFF1F07010080E0D2
:1001B000F8FEFFFFFFFCF8F0E0C0C1C3C3838387F4
:1001C000878381C0C0F0F8FFE0C08000070F1F1FC9
:1001D0001F1F1F1F1F0F000000C0FFFFFFFFFFFEBC
:1001E000F8C00000011FFFFFFFFFFFFFFFFFFFFF41
:1001F000FFFFFFFFFFFFFFFFFFFFFFFFFFFFFFFF0F
:10020000FFFFFFFFFFFFFFFFFFFFFFFFFFFFFFFFFE
:10021000FFFFFFFFFFFFFFFFFFFFFFFFFFFFFFFFEE
:10022000FFFFFFFFFFFFFFFF3F00000000E0C1C135
:1002300083838707070F0F1F1F1F1F3F3F3F3F7F0E
:100240007F7F7F7F7FFFFFFFFFFFFFFFFEFEFEFE42
:10025000FEFEFEFEFEFEFEFFFFFF7F7F7F3F3F3F75
:100260001F1F000000001FFFFFFFFFFFFFFFFFFF3A
:10027000FFFFFFFFFFFFFFFFFFFFFFFFFFFFFFFF8E
:10028000FFFFFFFFFFFFFFFFFFFFFFFFFFFFFFFF7E
:10029000FFFFFFFFFFFFFFFFFFFFFFFFFFFFFFFF6E
:1002A000FFFFFFFFFFFFFFFFE0000000073FFFFF32
:1002B000FFFFFFFF3F02000000F0FCFCFCF8F8F835
:1002C000F808000000C0F0F0F0F0F0F0F0F0F010EE
:1002D00000000080F0F0F0F0F000000000F8F8FC02
:1002E0003C00000000F0FFFFFFFFFFFFFFFFFFFFEC
:1002F000FFFFFFFFFFFFFFFFFFFFFFFFFFFFFFFF0E
:10030000FFFFFFFFFFFFFFFFFFFFFFFFFFFFFFFFFD
:10031000FFFFFFFFFFFFFFFFFFFFFFFFFFFFFFFFED
:10032000FFFFFFFFFFFFFFFFFFFFFEF8F0E0C081D0
:10033000030707010000203C7F7F7FFFFFFFFF7F57
:1003400001000000F8FFFFFFFFFFFFFFFFFF3F007E
:10035000000000FFFFFFFF7F3F0000000007038059
:10036000C0E0F0FCFFFFFFFFFFFFFFFFFFFFFFFF0D
:10037000FFFFFFFFFFFFFFFFFFFFFFFFFFFFFFFF8D
:10038000FFFFFFFFFFFFFFFFFFFFFFFFFFFFFFFF7D
:10039000FFFFFFFFFFFFFFFFFFFFFFFFFFFFFFFF6D
:1003A000FFFFFFFFFFFFFFFFFFFFFFFFFFFFFFFF5D
:1003B000FFFEFCFCFCFCF8F8F8F0F0F0F0F0E0E0F8
:1003C000E0E0E0E0E1E1C1C1C3C3C3C3C3C3C0C057
:1003D000C0C0C1C1E1E0E0F0F0F8F8FCFEFEFFFFB4
:1003E000FFFFFFFFFFFFFFFFFFFFFFFFFFFFFFFF1D
:1003F000FFFFFFFFFFFFFFFFFFFFFFFFFFFFFFFF0D
:10040000FFFFFFFFFFFFFFFFFFFFFFFFFFFFFFFFFC
:10041000FFFFFFFFFFFFFFFFFFFFFFFFFFFFAE201C
:1004200000C840817FA1A6A83FD300D580D922DA99
:1004300012DB208D14A4AF0011241FBECFE5D2E043
:10044000DEBFCDBFD0D0D7C0DBCDBB9AC39A2FE3E0
:100450008DE093E0215080409040E1F700C0000023
:10046000C3982FE986E891E0215080409040E1F761
:1004700000C00000EBCFB89ABA9AC29AC09A80EF37
:100480008EB98AE28DB90895C09800C000C00000FE
:10049000C298C09A0895C29A00C000C00000C09AD5
:1004A0000895C2988EB9769B04C080B39FEF9FB920
:1004B0000895689AF8CFB8988EEFF3DFB89A089548
:1004C0008FB980EFEEDFF7DF811511F0BB9AC39A89
:1004D0000895CF93DF93D82FB89880EFE2DFC82F2D
:1004E000B89ADFB98EEFDDDF8C2FDF91CF910895C1
:1004F000CF93DF93C9DF88E7E3DF80E0E1DFCEE180
:10050000D4E0FE018491DCDF2196F4E0C733DF07FD
:10051000C1F7DF91CF91BFCFEF92FF920F931F935F
:10052000CF93DF93EC017B0118161906B4F4ACDF0E
:1005300088E7C6DF80E0C4DF8701CE0DDF1DF8014C
:1005400081918F01BDDF0C171D07C9F7DF91CF9196
:100550001F910F91FF90EF909ECFDF91CF911F9150
:100560000F91FF90EF900895EF92FF920F931F93DA
:10057000CF93DF937C018B0187DF88E7A1DF80E0E9
:100580009FDFE80100E010E00E151F053CF0DF9151
:10059000CF911F910F91FF90EF907DCF899190DFC8
:1005A0000F5F1F4FF1CFEF92FF920F931F93CF93E7
:1005B000DF938C017B0168DF88E782DF80E480DFE6
:1005C000C0E0D0E0C017D1073CF0DF91CF911F9180
:1005D0000F91FF90EF905FCFF701EC0FFD1F84911B
:1005E0006FDF2196EFCF47DF83DF6EE170E080E0C1
:0A05F00094E0D9DF2ADFF894FFCF72
:00000001FF
