:100000001BC022C021C020C01FC01EC01DC01CC0FC
:100010001BC01AC019C018C017C016C015C0AE202A
:1000200000C840817FA1A6A83FD300D580D922DA9D
:1000300012DB208D14A4AF0011241FBECFE5D2E047
:10004000DEBFCDBF4DD16AC1DBCFCF93DF93C62FCB
:10005000880F880F880F67E0680FFED061E06C0F93
:100060008C2FEAD07BD080E470D0C8E0D0E08FEF56
:100070006CD02197E1F7DF91CF9185C0BC9AC49AEB
:100080000895C49808958D3D20F0F6D060E087E093
:1000900005C08E3C20F0F0D064E08FE0D6CF8B3AE4
:1000A00018F0EAD067E0F3CF893720F0E5D064E0BC
:1000B00080E0F4CF0895DB01FC0160E070E06A1796
:1000C0007B070CF0089584812081280F20833181E3
:1000D000380F318395814281490F42835381590FF3
:1000E00053835F3310F4411102C0919595833F37DC
:1000F00010F4211102C0819584836F5F7F4F369683
:10010000DECFB89ABA9AC09AC29A8AE28DB980EFC5
:100110008EB98FEF8FB90895C098C298C09A08958C
:10012000C29AC09A0895806F8EB976990895689A98
:10013000FCCFB8981FB88EE0F6DFB89A90B38FEF77
:100140008FB981E0911180E008958FB980E0EBDFF5
:10015000F0DF811102C0BC9AC49A0895DDDF88E700
:10016000F4CFCF93DF93FADF80E0EFDFCEE1D0E092
:10017000FE018491EADF2196F0E0C733DF07C1F783
:10018000DF91CF91CDCFCCCFEF92FF920F931F9302
:10019000CF93DF937C018B01E1DF80E0D6DFE801C4
:1001A00000E010E00E151F053CF0DF91CF911F918C
:1001B0000F91FF90EF90B4CF8991C7DF0F5F1F4F72
:1001C000F1CFEF92FF920F931F93CF93DF937C01B8
:1001D0008B01C4DF80E4B9DFE80100E010E00E1518
:1001E0001F053CF0DF91CF911F910F91FF90EF9091
:1001F00097CF8991AADF0F5F1F4FF1CFEF92FF9248
:100200000F931F93CF93DF938C017B01A7DF80E4D3
:100210009CDFC0E0D0E0C017D1073CF0DF91CF9168
:100220001F910F91FF90EF907BCFF701EC0FFD1F17
:1002300084918BDF2196EFCFCF93DF93D82FC62FFA
:100240008DDF80E082DF82E280DF8D2F7EDF8C2FEA
:100250007CDFDF91CF9164CFCF93DF93D82FC62F70
:100260007DDF80E072DF81E270DF8D2F6EDF8C2F0B
:100270006CDFDF91CF9154CFCF93DF936FE780E0B6
:10028000EBDF67E080E0D8DF69DF80E45EDFC0E0BD
:10029000D4E080E05ADF2197E1F7DF91CF9140CFA2
:1002A0006FE780E4D9DF63E083E0C6DF57DF80E4F7
:1002B0004CDF8FEF4ADF80E048DF8FEF46DF80E0E2
:1002C00044DF8FEF42DF2CCF87B1836287B986B1DD
:1002D000866886B90895369A369BFECF85B1089513
:1002E00080E886BD16BC0DDF3CDFEEDFC5DFC6DE75
:1002F0002FEF84E39CE0215080409040E1F700C064
:100300000000BFDE2FEF84E39CE02150804090404E
:10031000E1F700C00000DFDFB6DEFDCFF894FFCFCD
:00000001FF
