:100000001BC035C034C033C032C031C030C02FC077
:100010002EC02DC078C32BC02AC029C028C0AE2056
:1000200000C840817FA1A6A83FD300D580D922DA9D
:1000300012DB208D14A4AF0011241FBECFE5D2E047
:10004000DEBFCDBF10E0A0E6B0E0E6E5F9E002C01B
:1000500005900D92A639B107D9F720E0A6E9B0E0E6
:1000600001C01D92A23DB207E1F7ADD372C4C8CF63
:1000700080B78F6880BF0895909196002091970077
:1000800030919800E7E9F0E081E0891710F080E016
:1000900008954281241303C04381341719F08F5F00
:1000A0003296F3CF81E00895880F880F880F660F8E
:1000B000660F660F982F962B911579F15091970046
:1000C000252F30E0280F311D87FD3A952F37310558
:1000D00020F540919800242F30E0260F311D67FD58
:1000E0003A952F333105C8F490919600E92FF0E04E
:1000F000EE0FFF1FE956FF4F3297911108C0850F91
:1001000080939700640F6093980081E008952081A8
:100110002283218123839150EFCF80E00895CF92F5
:10012000DF92EF92FF920F931F93CF93DF936FE7CE
:1001300080E08CD167E080E07BD122D100E010E04C
:10014000F02EC0E0D0E087E0E82EE00EEC2F4091EA
:10015000960050E0A7E9B0E060E070E06417750732
:1001600014F080E028C08C91E81708F447C0282FCD
:1001700030E0295F3F4F2C173D070CF43FC011962C
:100180002C911197F21658F1C22ED12C37E0C30EE4
:10019000D11CC016D10694F1E81B0E2E000CFF0BEB
:1001A000E05AFF4F808190E03F2D321B02C09595B1
:1001B00087953A95E2F7C6D02196C038D10531F639
:1001C000085F1F4F0034110509F0BACFDF91CF91BE
:1001D0001F910F91FF90EF90DF90CF90D7C0E21664
:1001E00068F0E81B0E2E000CFF0BE05AFF4F8081D9
:1001F0002F1901C0880F2A95EAF7DDCF6F5F7F4F77
:100200001296ACCF4F925F926F927F928F929F9295
:10021000AF92BF92CF92DF92EF92FF920F931F9314
:10022000CF93DF936FE780E011D167E080E000D1EA
:10023000A7D0E12CF12C4DEA50E020E630E088E632
:1002400090E0B42EA52E722E632E582E492E00E07B
:1002500010E024C020812017110651F421812E15B1
:100260001F0431F4811120C0C52D942DD92F06C053
:100270008F5F32969813EECFCB2DDA2D6E01FE01F3
:1002800038964F01F60181916F015CD0C814D904F2
:10029000C9F7085F1F4F0038110549F0909196008B
:1002A000E7E9F0E080E0E6CFC72D962DDFCFF8E05C
:1002B000EF0EF11C80E4E816F10449F6DF91CF91CE
:1002C0001F910F91FF90EF90DF90CF90BF90AF9074
:1002D0009F908F907F906F905F904F9057C0BC9A87
:1002E000C49A0895C498089588B390E1892788BB7B
:1002F0000895B89ABA9AC09AC29A8AE28DB980EFE4
:100300008EB98FEF8FB90895C098C298C09A08959A
:10031000C29AC09A0895806F8EB976990895689AA6
:1003200082E08A95F1F700C0689AF7CFB8981FB8B5
:100330008EE0F1DFB89A90B38FEF8FB981E0911121
:1003400080E008958FB980E0E6DFF0DF811102C020
:10035000BC9AC49A0895D8DF88E7F4CFCF93DF938F
:10036000FADF80E0EFDFCEE1D0E0FE018491EADF4A
:100370002196F0E0C733DF07C1F7DF91CF91C8CFF7
:10038000EADF80E4DFCFE7DF80E0DCCFC1CFEF92B0
:10039000FF920F931F93CF93DF937C018B01C0E0FB
:1003A000D0E0CE15DF053CF0DF91CF911F910F918A
:1003B000FF90EF90ADCFF80181918F01C3DF2196BF
:1003C000F0CFEF92FF920F931F93CF93DF937C01B7
:1003D0008B01D6DFE80100E010E00E151F053CF0B0
:1003E000DF91CF911F910F91FF90EF9091CF899165
:1003F000A9DF0F5F1F4FF1CFEF92FF920F931F9373
:10040000CF93DF938C017B01BBDFC0E0D0E0C0174E
:10041000D1073CF0DF91CF911F910F91FF90EF90AA
:1004200077CFF701EC0FFD1F84918CDF2196EFCF82
:10043000CF93DF93D82FC62FA6DF82E283DF8D2FE5
:1004400081DF8C2F7FDFDF91CF9162CFCF93DF935E
:10045000D82FC62F98DF81E275DF8D2F73DF8C2FA9
:1004600071DFDF91CF9154CFCF93DF936FE780E0BF
:10047000EDDF67E080E0DCDF83DFC0E0D4E080E038
:1004800061DF2197E1F7DF91CF9142CF6FE780E401
:10049000DDDF63E083E0CCDF73DF8FEF53DF80E0ED
:1004A00051DF8FEF4FDF80E04DDF8FEF4BDF30CF3D
:1004B00087B1836087B986B1866886B90895369A10
:1004C000369BFECF84B195B10895BF92CF92DF9253
:1004D000EF92FF920F931F93CF93DF9308EC10E0FE
:1004E000B12CC12CD12CE12CF12CF894E8DFEC01DB
:1004F000789489599340439738F4B39485E0B816BB
:1005000068F180E090E02FC0CE018C549340439777
:1005100038F4C39485E0C81608F181E090E023C068
:10052000CE01845B9240439738F4D39485E0D8168B
:10053000A8F082E090E017C0CE01875F914043971A
:1005400038F4E39485E0E81648F083E090E00BC0CF
:10055000E29724F4F39485E0F81678F40150104003
:1005600021F685E090E0DF91CF911F910F91FF90F0
:10057000EF90DF90CF90BF90089584E090E0F3CFAC
:1005800080B7866680BF1FBC08958DBD86958EBDE1
:10059000B99A0895B99808959093C9008093C800B6
:1005A0001092C700FDD02093BF003093C00040934D
:1005B000C1005093C2006093C3007093C400809345
:1005C000C5009093C60008951092C9001092C8000B
:1005D000E1CF81E02091C8003091C900232B09F4BC
:1005E00080E008952F923F924F925F926F927F9298
:1005F0008F929F92AF92BF92CF92DF92EF92FF9233
:100600000F931F93CF93DF9300D000D0CDB7DEB709
:100610008091C8009091C900892B09F452C0C0D0C4
:10062000322E432E542E652E762E7C838B83292EDC
:100630008090C8009090C900D4010D90BC91A02D6D
:10064000BA83A983E091C700A090BF00B090C0001A
:10065000C090C100D090C200E090C300F090C400F0
:100660000091C5001091C60056D18D010E0F111DCD
:100670000E0F111DD8011196AC90B12CC12CD12CAC
:10068000E12CF12C00E010E04FD1A8F0EF5FE093F7
:10069000C7003092BF004092C0005092C1006092EB
:1006A000C2007092C300BC81B093C400FB81F09380
:1006B000C5002092C600D40112968C91E817C8F0AC
:1006C00083DF80E00F900F900F900F90DF91CF911C
:1006D0001F910F91FF90EF90DF90CF90BF90AF9060
:1006E0009F908F907F906F905F904F903F902F9052
:1006F0000895A981BA81AE0FB11DAE0FB11D8C91C5
:1007000044DF81E0DFCF0F920FB60F921F921124CA
:100710002F933F934F935F936F937F938F939F9309
:10072000AF932091CA003091CB004091CC00509102
:10073000CD006091CE007091CF008091D00090915B
:10074000D100A1E0DCD02093CA003093CB004093CD
:10075000CC005093CD006093CE007093CF00809377
:10076000D0009093D100AF919F918F917F916F9125
:100770005F914F913F912F911F900F900FBE0F905F
:1007800018951ABC13BE8AB582608ABD83B785608E
:1007900083BF83EC89BD12BE89B7806189BF08958C
:1007A000F8942091CA003091CB004091CC00509138
:1007B000CD006091CE007091CF008091D0009091DB
:1007C000D1007894089580E886BD16BCDADFD8DEC3
:1007D0006FDE8FDDC3DD48DE80E48093970080E12B
:1007E000809398009091960028E32093990080933D
:1007F0009A0020E320939B0080939C0028E22093A2
:100800009D0080939E0020E220939F008093A00093
:100810009B5F90939600C4DF2093B7003093B8009D
:100820004093B9005093BA006093BB007093BC0032
:100830008093BD009093BE0084E090E09093B6005A
:100840008093B500ADDF19012A013B014C01A09056
:10085000B700B090B800C090B900D090BA00E09056
:10086000BB00F090BC000091BD001091BE0053D0C1
:10087000ABE063D050F18091B5009091B60082302A
:100880009105B1F128F4892B79F56FEF80E02EC046
:10089000039781F1B7DCF0DB811579F19ADE8111E4
:1008A00004C082E990E078DE1ADD2092B700309231
:1008B000B8004092B9005092BA006092BB007092AA
:1008C000BC008092BD009092BE00FFDDEC019093D1
:1008D000AC008093AB000497029720F0D093B60051
:1008E000C093B5007FDEAECF60E081E0DDDBD2CF2C
:1008F00061E0CCCF60E08FEFF9CFF4DCD6CF0024FD
:10090000A7FD00942A0F301D401D501D601D701D55
:10091000801D901D08952A193B094C095D096E0937
:100920007F09800B910B08952A153B054C055D0549
:100930006E057F058007910708950024A7FD0094A8
:100940002A173005400550056005700580059005A3
:060950000895F894FFCFAA
:10095600FF818181818181FFFF81A59999A581FF11
:10096600770A8E05770A8E0A77058E0A7F0A9F0A0E
:10097600BE0AEF05D505EF05D505EF057000037630
:0609860000037C000800E4
:00000001FF
