:10000000E8C202C301C300C3FFC2FEC2FDC2FCC2FC
:10001000FBC2FAC250C7F8C2F7C2F6C2F5C2070067
:100020000800060007001A00120002000E0011006E
:1000300004001A00120002000E00110004001A0051
:10004000060000000C0004001A000E001500040059
:10005000110012000D0000000A0004001A00240024
:100060001B001A0004FD00021F01041B01041701FC
:10007000041301031001040C010309010405010428
:100080000101059301058E010589010584010480A4
:1000900001047C01047701047301017201036F0103
:1000A000046B01036801076101055C010557010448
:1000B0005301054E01054901044501054001053B79
:1000C00001053601072F01052A010525010421013B
:1000D000002101021F01041B010417010413010385
:1000E0001001040C0103090104050104010104FDD0
:1000F0000008B00108A80108A001089801788484CC
:1001000078489494786894946804F40C7894946093
:100110009C94646058FC4048849468C8A4A49808DF
:10012000FCC4A4948C0408F0080484483048840C6F
:1001300030C030C0300C0C30C0300C7C8080807CF3
:100140000404FC04044894A448FC242424D878849F
:10015000A444B8FC2424187884848478FC0C30C02F
:10016000FCFC0C30C0300CFCFC8080FC304884C0AF
:10017000807CFCFC1010FC788484A4E8FC1414043B
:10018000FC949484FC848484787884848448FC94EB
:10019000949468C0302C30C0FF818199998181FF8F
:1001A000FF818181818181FFFF81A59999A581FFCF
:1001B0000000000000000000E0E0E0E0F0F8FF7F59
:1001C0003F1F8FC7C7CFCFCF8F8F8F8F9F1F3F7F8F
:1001D0007F7FFFFFFFFFFFFFFFFF1F1F1F1F1F1F6F
:1001E0001F3F3F3FFFFFFFFFFFFFFFFFFFFFFFFF3F
:1001F000FFFFFFFFFFFFFFFFFFFF7F7F7F7F7FFF8F
:10020000FFFFFFFFFFFFFFFFFFFFFFFFFFFFFFFFFE
:10021000FFFFFFFFFFFFFFFFFFFFFF7F7F7F7F7F6E
:100220007F7F7F7F7FFFFFFFFFFFFFFFFFFFFFFF5E
:10023000FFFFFFF8F0E0E0E0FFFFFFFFFFFFFF0040
:100240000000FFFFFFFFFFFFFFFFFFFFFFFFFF03B8
:100250000000000103030303010000FEFEFFFFFF97
:10026000FEFEFE000003070F9F9F9F9F9F9F9F9F83
:100270009F9F9F9F9F9F8F87830178FCFEFEFEFEBE
:10028000FFFFFDFBF7E7070F1F1F1F1F9F9F9FBF6C
:100290007F7F7F7F3F1F0F0703C1E0F0F8FCFCFC6E
:1002A000FCFCFCFCFCFCFCFCFCF8F0E0C103071FC0
:1002B0007FFFFFFFFFFFFFFFFFFFFFFFFFFFFFFCD1
:1002C0000000FFFFFFFFFFFFFFFFFFFFFFFFFFC07B
:1002D00000000000000000000000C0FFFFFFFFFF63
:1002E000FFFFFF000000FEFFFFFFFFFFFFFFFF1FFC
:1002F0000F07070707070707070F000001FFFFFFAA
:10030000FFFFFFFFFFFFF00000001E3FFFFFFFFFAA
:10031000FFFEFCF8C00000C0F8FFFFFFFFFFFFFF7B
:10032000FF7F0301000000000103FFFFFFFFFEFC51
:10033000F8F3870F0F0FFFFFFFFFFFFFFFFFFF3FE8
:100340000000FFFFFFFFFFFFFFFFFFFFFFFFFFFFBB
:100350007F3E1E1E1E1E3E7EFEFFFFFFFFFFFFFFB5
:10036000FFFFFF000000FFFFFFFFFFFFFFFFFFFE9B
:10037000FCF8F8F0F0F0F0F8F8FCFC78001FFFFF54
:10038000FFFFFFFFFF7F0F000000000001FFFFFFE6
:10039000FFFFFFFFFF0000FFFFFFFFFFFFFFFFFF6B
:1003A000FF0000000000000000FCFFFFFFFFFFFF58
:1003B000FFFFFF0000E0FFFFFFFFFFFFFFFFFF0069
:1003C00000003FFFFFFFFFFFFFFFFFFFFFFFFFFFFB
:1003D0000000000000000000FFFFFFFFFFFFFFFF25
:1003E000FFFFFF000000FFFFFFFFFFFFFFFFFFFF1A
:1003F000C3810000000000000000000080003F7F7B
:10040000FFFFFFFFF0E0C0C04040201000FFFFFFF3
:10041000FFFFFFFFFF0000030F1F3F7FFFFFFFFFF6
:10042000C0800000000080C0F8FFFFFFFFFFFFFF5B
:100430007F3F0F00F0FFFFFFFFFFFFFFFFFFFF0009
:10044000000000FFFFFFFFFFFFFFFFFFFFFFFFFFB9
:100450000000000000000000FFFFFFFFFFFFFFFFA4
:10046000FFFFFF0000000103070707070F8F8F8FB3
:10047000878F8F8F8F8F8F8F8F8F8787E3F0F8F81D
:10048000F8F8F8F9F1F1F1F0F0F0F0E0C000071F32
:100490003F7FFFFFFFFEFCF8F8F8F8FC7E3D030706
:1004A0000787C7C7C7C7C7C7C7E3E1E1E1E0F0F8FF
:1004B000FCFEFFFFFFFFFFFFFFFFFFFFFFFFFFFE51
:1004C000F0E0C0878F9FBFBFBFBFFFFFFFBF878721
:1004D00080C0E0E0E0E0C08F9FBFBFBFBFBFBFBF35
:1004E0009F8F8780C0E0FCFEFFFFFFFFFFFFFFFF45
:1004F000FFFFFFFFFFFFFFFFFFFFFFFFFFFFFFFF0C
:10050000FFFFFFFFFFFFFFFFFFFFFFFFFFFFFEFCFF
:10051000F8F8F8F8F8F8F8F0F0F0F0F0F0F8FCFE81
:10052000FFFFFFFFFFFFFFFFFFFFFFFFFFFFFFFFDB
:10053000FFFFFFFFFFFFFFFF030303070FFFFFFFA7
:10054000FFFFFFFFFFFFFFFFFFFFFFFFFFFFFFFFBB
:10055000FFFFFFFFFFFFFFFFFFFFFFFFFFFFFFFFAB
:10056000FFFFFFFFFFFFFFFFFFFFFFFFFFFFFFFF9B
:10057000FFFFFFFFFFFFFFFFFFFFFFFFFFFFFFFF8B
:10058000FFFFFFFFFFFFFFFFFFFFFFFFFFFFFFFF7B
:10059000FFFFFFFFFFFFFFFFFFFFFFFFFFFFFFFF6B
:1005A000FFFFFFFFFFFFFFFFFFFFFFFFFFFFFFFF5B
:1005B000FFFFFF1F0F070707AE2000C840817FA184
:1005C000A6A83FD300D580D922DA12DB208D14A44F
:1005D000AF0011241FBECFE5D2E0DEBFCDBF10E0DB
:1005E000A0E6B0E0E2E4F3E102C005900D92AC3980
:1005F000B107D9F721E0ACE9B0E001C01D92AC3BF6
:10060000B207E1F7B8D492C6FBCCE0916300F09159
:1006100064009081981303C081E09181961380E07B
:10062000089520916000ECE9F0E091E0921710F05D
:1006300080E008953281381303C03381361719F0F2
:100640009F5F3296F3CF81E008950F931F93CF936E
:10065000DF9300E110E0C8E0D0E0F9D5E09163005D
:10066000F0916400B8016CD5880F880F880F8083E3
:10067000EED5E0916300F0916400BE0161D5682F72
:10068000660F660F660F61838081CBDF8111E5CF36
:10069000DF91CF911F910F910895E0916100F0914A
:1006A00062009F012E5F3F4F3093620020936100F4
:1006B000909160009F5F9093600082836383C5CFB9
:1006C000209160002150330BECE9F0E040E050E075
:1006D0004F5F5F4F32964217530744F0E09161003D
:1006E000F09162008083618381E00895928190831C
:1006F00093819183EDCF8EE990E090936200809397
:10070000610080E480939E0088E180939F0082E0F6
:100710008093600087E090E090939F0180939E011A
:100720001ED222E530E049E060E080E0DFD02EE13B
:1007300030E04BE061E080E0D9D08091A00173D13E
:1007400053D20697E9F704D4C90185D57ECF89E94C
:1007500090E0F8D220E430E049E060E080E0C6D0EC
:100760002091A001809160008150990B28171906F3
:10077000A4F42EE130E04BE061E080E0B7D080915E
:10078000600081508093A0018091600081504BD126
:100790002BD2059749F4D1D2AECF24E330E046E026
:1007A00061E080E0A3D0F0CFF5D2F2CF2F923F925C
:1007B0004F925F926F927F928F929F92AF92BF9271
:1007C000CF92DF92EF92FF920F931F93CF93DF931D
:1007D00000D00F92CDB7DEB7382E292E2B016FE750
:1007E00080E093D167E080E082D17BD1C12CD12C15
:1007F0009E012F5F3F4F590188E0682E712CE12C3C
:10080000F12C43E050E061EF70E0C5012FD5F2011B
:100810004081032D122D20E0C501421791F0F8010F
:1008200030813E151F0409F04FC031813C151D0475
:1008300009F04AC0211139C043E050E064EF70E094
:1008400015D5912C8981981608F442C0812C912CE1
:1008500089819301281B3109821693060CF440C04C
:1008600038E0E30EF11C80E8E816F10451F698E058
:10087000C90ED11CE0E4CE16D10409F637D10F9091
:100880000F900F90DF91CF911F910F91FF90EF90FC
:10089000DF90CF90BF90AF909F908F907F906F90A0
:1008A0005F904F903F902F9008954150550B241723
:1008B000150629F443E050E06AEF70E0C1CF43E051
:1008C00050E067EF70E0BCCF2F5F0E5F1F4FA5CFEA
:1008D000EA81FB81E90DF11D8491EAD09394B2CFB6
:1008E00080E0E6D0FFEF8F1A9F0AB2CFDF92EF923F
:1008F000FF920F931F93CF93DF9300D000D00F92FE
:10090000CDB7DEB7162FE42ED22EF32E6FE7FDD033
:1009100067E0812FECD0E5D00D2D1F2DD12CDE10FE
:100920000EC0E4D00F900F900F900F900F90DF91BA
:10093000CF911F910F91FF90EF90DF90089542E0CB
:1009400050E0B801CE01049691D48C819D8163E082
:1009500070E0C5D3BC016E577F4F43E050E0CE013D
:10096000019684D4F12C8981F81640F080E0A0D063
:1009700080E09ED0D3940E5F1F4FD1CFEA81FB81E0
:10098000EF0DF11D849194D0F394EDCF1F93CF938D
:10099000DF9300D00F92CDB7DEB7E82F8A30E0F4B6
:1009A000E15043E050E064E670E0E93040F4F0E00C
:1009B000E856F64F43E050E0099467E670E0CE0158
:1009C000019654D48ED010E08981181720F180E070
:1009D0006FD080E06DD08AD00F900F900F90DF9194
:1009E000CF911F9108956AE670E0E9CF6DE670E05F
:1009F000E6CF60E770E0E3CF63E770E0E0CF66E763
:100A000070E0DDCF69E770E0DACF6CE770E0D7CF58
:100A10006FE770E0D4CFEA81FB81E10FF11D849193
:100A200047D01F5FD1CFCF93DF9300D0CDB7DEB7D4
:100A30002AE0622F65D3998363D39A83A7DF8A81E3
:100A4000A5DF89810F900F90DF91CF919FCFB89A4A
:100A5000BA9AC29AC09A8FEF8FB98AE28DB980EEA6
:100A60008EB90895C09AC29AC29BFECFC098C29810
:100A7000C09A0895C098C29AC29BFECFC09A0895AA
:100A8000C2988EB9769B04C080B39FEF9FB908953A
:100A9000689A82E08A95F1F700C0689A82E08A95A8
:100AA000F1F700C0EFCFB8988EEFEADFB89A08955B
:100AB0008FB980EFE5DFF7CFD5DF88E7F9DF80E09A
:100AC000F7CFCF93DF93F8DFC8EBD5E0FE01849139
:100AD000EFDF2196F5E0C53DDF07C1F7DF91CF914C
:100AE000C9CFC0DF88E7E4DF80E4E2CFC3CFCF9394
:100AF000DF93D82FC62FE0DF82E2DADF8D2FD8DF39
:100B00008C2FD6DFDF91CF91B5CFCF93DF93D82F46
:100B1000C62FD2DF81E2CCDF8D2FCADF8C2FC8DF5A
:100B2000DF91CF91A7CFEF92FF920F931F93CF93B7
:100B3000DF938C017B01D5DFC0E0D0E0C017D10787
:100B40003CF0DF91CF911F910F91FF90EF9092CFEA
:100B5000F701EC0FFD1F8491ABDF2196EFCFCF9310
:100B6000DF936FE780E0D1DF67E080E0C0DFB9DFCF
:100B7000C0E0D4E080E09CDF2197E1F7DF91CF91E6
:100B800079CF6FE780E4C1DF63E083E0B0DFA9DF06
:100B90008FEF8EDF80E08CDF8FEF8ADF80E088DFF1
:100BA0008FEF86DF67CF67E080E0A1DF6FE780E04F
:100BB000ACDF68EB71E080E094E0B5CF86B1866889
:100BC00086B9089525E080E090E0369A369BFECF06
:100BD00044B135B1532F840F951F2A95B1F765E0C5
:100BE00070E09AD2CB010895DF92EF92FF920F93BB
:100BF0001F93CF93DF93399A389808EC10E0D12CEB
:100C0000E12CF12CF894DEDFEC017894805B9240CB
:100C1000879738F4D3948AE0D816A8F085E090E05E
:100C200017C0CE018A529140879738F4E3948AE046
:100C3000E81648F086E090E00BC0259720F4F39486
:100C40008AE0F81668F401501040E1F688E090E080
:100C5000DF91CF911F910F91FF90EF90DF9008955A
:100C600087E090E0F5CFBF92CF92DF92EF92FF92B4
:100C70000F931F93CF93DF9387B1836087B908ECFD
:100C800010E0B12CC12CD12CE12CF12CF8949ADF7E
:100C9000EC0178948F539340879738F4B3948AE0AB
:100CA000B81668F180E090E02FC0CE01805C9240E1
:100CB000879738F4C3948AE0C81608F181E090E081
:100CC00023C0CE01805F9140879738F4E3948AE097
:100CD000E816A8F083E090E017C0CE018953914058
:100CE000879738F4D3948AE0D81648F082E090E0F1
:100CF0000BC0259720F4F3948AE0F81678F401509D
:100D0000104021F688E090E0DF91CF911F910F9184
:100D1000FF90EF90DF90CF90BF90089587E090E034
:100D2000F3CF80B7866680BF1FBC08958DBD8695C2
:100D30008EBDB99A0895B99808951092B301109292
:100D4000B201F9CFCF93DF93D82FC92FF6DFD0931D
:100D5000B201C093B3011092B101FAD02093A9015E
:100D60003093AA014093AB015093AC016093AD0165
:100D70007093AE018093AF019093B001DF91CF915A
:100D8000089581E02091B2013091B301232B09F441
:100D900080E008952F923F924F925F926F927F92E0
:100DA0008F929F92AF92BF92CF92DF92EF92FF927B
:100DB0000F931F93CF93DF9300D000D0CDB7DEB752
:100DC0008091B2019091B301892B09F452C0C0D037
:100DD000322E432E542E652E762E7C838B83292E25
:100DE0008090B2019090B301D4010D90BC91A02DE0
:100DF000BA83A983E091B101A090A901B090AA01A2
:100E0000C090AB01D090AC01E090AD01F090AE018C
:100E10000091AF011091B001B2D18D010E0F111DE3
:100E20000E0F111DD8011196AC90B12CC12CD12CF4
:100E3000E12CF12C00E010E0ABD1A8F0EF5FE093E3
:100E4000B1013092A9014092AA015092AB01609287
:100E5000AC017092AD01BC81B093AE01FB81F09307
:100E6000AF012092B001D40112968C91E817C8F01E
:100E700064DF80E00F900F900F900F90DF91CF9183
:100E80001F910F91FF90EF90DF90CF90BF90AF90A8
:100E90009F908F907F906F905F904F903F902F909A
:100EA0000895A981BA81AE0FB11DAE0FB11D8C910D
:100EB0003DDF81E0DFCF0F920FB60F921F9211241A
:100EC0002F933F934F935F936F937F938F939F9352
:100ED000AF932091B4013091B5014091B60150918A
:100EE000B7016091B8017091B9018091BA019091F8
:100EF000BB01A1E038D12093B4013093B5014093F8
:100F0000B6015093B7016093B8017093B901809313
:100F1000BA019093BB01AF919F918F917F916F9197
:100F20005F914F913F912F911F900F900FBE0F90A7
:100F300018951ABC13BE8AB582608ABD83B78560D6
:100F400083BF83EC89BD12BE89B7806189BF0895D4
:100F5000F8942091B4013091B5014091B6015091BF
:100F6000B7016091B8017091B9018091BA01909177
:100F7000BB017894089500D000D000D0CDB7DEB783
:100F800080E886BD16BCD5DFCCDE18DE60DD99DDDD
:100F9000E6DDB1DB87E090E090939F0180939E01B6
:100FA000D7DF2093A1013093A2014093A301509376
:100FB000A4016093A5017093A6018093A70190936B
:100FC000A80187E0682E712CC3DF19012A0169830B
:100FD0007A838B839C83A090A101B090A201C090E2
:100FE000A301D090A401E090A501F090A60100918A
:100FF000A7011091A801C3D0A6E0D3D008F445C042
:1010000020919E0130919F0190E080E027303105D2
:1010100040F4F901E457FF4F80812B573F4FF9010E
:101020009081E0916100F0916200182F110F110F73
:10103000110F2081120F092F000F000F000F2181C7
:10104000020F1F770F73892B811559F0602F812FA5
:10105000DCDA602F811569F1812F1FDB83E990E0D5
:1010600071DE2092A1013092A2014092A301509220
:10107000A401F981F093A5018A818093A6019B8147
:101080009093A701EC81E093A801AEDD4C01EBDD6C
:101090008D839E83F5E08F169104A9F470929F01D1
:1010A00060929E0160E670E08CE990E07FDB72DE8A
:1010B0008BCF812FB6DA811511F049DBD2CF602FAB
:1010C000812FFEDACECF8D819E810797029750F354
:1010D0008D819E8190939F0180939E01E3CF002498
:1010E000552704C0080E591F880F991F009729F033
:1010F00076956795B8F37105B9F7802D952F08950A
:10110000992778E0880F991F961708F0961B881F7B
:101110007A95C9F780950895AA1BBB1B51E107C0BA
:10112000AA1FBB1FA617B70710F0A61BB70B881F77
:10113000991F5A95A9F780959095BC01CD01089506
:1011400097FB072E16F4009406D077FD08D0E4DF55
:1011500007FC05D03EF4909581959F4F08957095BA
:1011600061957F4F08950024A7FD00942A0F301D3C
:10117000401D501D601D701D801D901D08952A1971
:101180003B094C095D096E097F09800B910B08959D
:101190002A153B054C055D056E057F058007910707
:1011A00008950024A7FD00942A1730054005500536
:1011B000600570058005900508958F929F92AF920B
:1011C000BF92CF92DF92EF92FF92CF93DF93EC0129
:1011D000688179818A819B816115710581059105FD
:1011E00021F464E279ED8BE597E02DE133EF41E006
:1011F00050E05ED049015A0127EA31E440E050E076
:101200003ED06B017C012CEE34EF4FEF5FEFC50158
:10121000B40135D0DC01CB018C0D9D1DAE1DBF1D71
:10122000B7FF03C00197A109B04888839983AA83B7
:10123000BB839F77DF91CF91FF90EF90DF90CF90AE
:10124000BF90AF909F908F900895B7DF089581E889
:1012500090E0B3DF0895B0E0A0E080938100909328
:101260008200A0938300B09384000895FB01DC0109
:1012700002C005900D9241505040D8F70895EE27D6
:10128000FF27AA27BB2708C0A20FB31FE41FF51F23
:10129000220F331F441F551F9695879577956795A5
:1012A00098F37040A9F7009799F7BD01CF01089511
:1012B000052E97FB16F400940FD057FD05D014D0DF
:1012C00007FC02D046F408C0509540953095219512
:1012D0003F4F4F4F5F4F0895909580957095619562
:1012E0007F4F8F4F9F4F0895A1E21A2EAA1BBB1B61
:1012F000FD010DC0AA1FBB1FEE1FFF1FA217B307E2
:10130000E407F50720F0A21BB30BE40BF50B661FF7
:10131000771F881F991F1A9469F7609570958095BB
:1013200090959B01AC01BD01CF010895F894FFCFCA
:1013300044CB59CB5BCB5DCB5FCB61CB63CB65CB78
:0213400067CB79
:10134200029E009C00770A8E05770A8E0A77058E28
:101352000A7F0A9F0ABE0AEF05D505EF05D505EFFC
:101362000501000000FF00010000FF01000100FF75
:0C13720000FF016500036B000371000820
:00000001FF
