:100000001BC035C034C033C032C031C030C02FC077
:100010002EC02DC0CEC32BC02AC029C028C0AE2000
:1000200000C840817FA1A6A83FD300D580D922DA9D
:1000300012DB208D14A4AF0011241FBECFE5D2E047
:10004000DEBFCDBF10E0A0E6B0E0ECEDFBE002C00B
:1000500005900D92A63AB107D9F721E0A6EAB0E0E3
:1000600001C01D92AD3CB207E1F703D4B5C5C8CFBE
:1000700091E0603408F490E087FB882780F9892BB1
:100080000895E0916300F09164009081981303C09B
:1000900081E09181961380E00895E0916100F091F4
:1000A0006200209163003091640032972E173F0761
:1000B00011F480E0089590819813F7CF9181961301
:1000C000F4CF81E008950F931F93CF93DF9300E166
:1000D00010E0C8E0D0E01AD5E0916300F091640030
:1000E000B8018DD4880F880F880F80830FD5E091D9
:1000F0006300F0916400BE0182D4682F660F660F22
:10010000660F61838081C9DF8111E5CFDF91CF91D7
:100110001F910F910895E0916100F09162009F019D
:100120002E5F3F4F309362002093610090916000FA
:100130009F5F9093600082836383C5CF20916000AE
:100140002150330BE6EAF0E040E050E04F5F5F4FB4
:1001500032964217530744F0E0916100F09162003B
:100160008083618381E0089592819083938191835C
:10017000EDCFCF92DF92EF92FF920F931F93CF9329
:10018000DF936FE780E08CD167E080E07BD122D104
:1001900000E010E0F02EC0E0D0E087E0E82EE00EB6
:1001A000EC2F4091600050E0A6EAB0E060E070E023
:1001B0006417750714F080E028C08C91E81708F4E4
:1001C00047C0282F30E0295F3F4F2C173D070CF424
:1001D0003FC011962C911197F21658F1C22ED12CD6
:1001E00037E0C30ED11CC016D10694F1E81B0E2EC9
:1001F000000CFF0BEB59FF4F808190E03F2D321B2D
:1002000002C0959587953A95E2F7C6D02196C038F9
:10021000D10531F6085F1F4F0034110509F0BACF40
:10022000DF91CF911F910F91FF90EF90DF90CF90D2
:10023000D7C0E21668F0E81B0E2E000CFF0BEB593E
:10024000FF4F80812F1901C0880F2A95EAF7DDCF73
:100250006F5F7F4F1296ACCF4F925F926F927F92FB
:100260008F929F92AF92BF92CF92DF92EF92FF92C6
:100270000F931F93CF93DF936FE780E011D167E077
:1002800080E000D1A7D0E12CF12C48EA51E025E62E
:1002900030E08DE690E0B42EA52E722E632E582EFF
:1002A000492E00E010E024C020812017110651F4EF
:1002B00021812E151F0431F4811120C0C52D942DEC
:1002C000D92F06C08F5F32969813EECFCB2DDA2D43
:1002D0006E01FE0138964F01F60181916F015CD0ED
:1002E000C814D904C9F7085F1F4F0038110549F039
:1002F00090916000E6EAF0E080E0E6CFC72D962D11
:10030000DFCFF8E0EF0EF11C80E4E816F10449F6C7
:10031000DF91CF911F910F91FF90EF90DF90CF90E1
:10032000BF90AF909F908F907F906F905F904F9015
:1003300057C0BC9AC49A0895C498089588B390E1B0
:10034000892788BB0895B89ABA9AC09AC29A8AE255
:100350008DB980EF8EB98FEF8FB90895C098C2988C
:10036000C09A0895C29AC09A0895806F8EB97699FE
:100370000895689A82E08A95F1F700C0689AF7CFED
:10038000B8981FB88EE0F1DFB89A90B38FEF8FB9AD
:1003900081E0911180E008958FB980E0E6DFF0DF21
:1003A000811102C0BC9AC49A0895D8DF88E7F4CFBF
:1003B000CF93DF93FADF80E0EFDFCEE1D0E0FE0104
:1003C0008491EADF2196F0E0C733DF07C1F7DF91C0
:1003D000CF91C8CFEADF80E4DFCFE7DF80E0DCCF7A
:1003E000C1CFEF92FF920F931F93CF93DF937C01C6
:1003F0008B01C0E0D0E0CE15DF053CF0DF91CF915E
:100400001F910F91FF90EF90ADCFF80181918F0177
:10041000C3DF2196F0CFEF92FF920F931F93CF93FC
:10042000DF937C018B01D6DFE80100E010E00E15C0
:100430001F053CF0DF91CF911F910F91FF90EF903E
:1004400091CF8991A9DF0F5F1F4FF1CFEF92FF92FC
:100450000F931F93CF93DF938C017B01BBDFC0E031
:10046000D0E0C017D1073CF0DF91CF911F910F91E1
:10047000FF90EF9077CFF701EC0FFD1F84918CDF99
:100480002196EFCFCF93DF93D82FC62FA6DF82E23E
:1004900083DF8D2F81DF8C2F7FDFDF91CF9162CFC4
:1004A000CF93DF93D82FC62F98DF81E275DF8D2F92
:1004B00073DF8C2F71DFDF91CF9154CFCF93DF9318
:1004C0006FE780E0EDDF67E080E0DCDF83DFC0E046
:1004D000D4E080E061DF2197E1F7DF91CF9142CF57
:1004E0006FE780E4DDDF63E083E0CCDF73DF8FEF75
:1004F00053DF80E051DF8FEF4FDF80E04DDF8FEF84
:100500004BDF30CF87B1836087B986B1866886B903
:10051000089525E080E090E0369A369BFECF44B106
:1005200035B1532F840F951F2A95B1F765E070E020
:1005300052D2CB0108959F92AF92BF92CF92DF9299
:10054000EF92FF920F931F93CF93DF9308EC10E08D
:10055000912CA12CB12CC12CD12CE12CF12CF89494
:10056000D8DFEC0178948B5D93400E9740F4E394D0
:100570008AE0E81608F445C085E090E048C0CE0166
:10058000865C93400E9738F4D3948AE0D816C8F16D
:1005900084E090E03CC0CE018A599340439738F400
:1005A000C3948AE0C81668F183E090E030C0CE01C1
:1005B00084539340439738F493948AE0981608F153
:1005C00080E090E024C0CE01875A92400E9738F424
:1005D000B3948AE0B816A8F082E090E018C0CE018B
:1005E000875F9140439738F4A3948AE0A81648F0B7
:1005F00081E090E00CC0259720F4F3948AE0F8168F
:1006000090F40150104009F0AACF87E090E0DF910C
:10061000CF911F910F91FF90EF90DF90CF90BF90FF
:10062000AF909F90089586E090E0F1CF80B7866606
:1006300080BF1FBC08958DBD86958EBDB99A089563
:10064000B99808959093C4018093C3011092C20198
:10065000FDD02093BA013093BB014093BC0150936D
:10066000BD016093BE017093BF018093C001909360
:10067000C10108951092C4011092C301E1CF81E03D
:100680002091C3013091C401232B09F480E0089527
:100690002F923F924F925F926F927F928F929F9292
:1006A000AF92BF92CF92DF92EF92FF920F931F9380
:1006B000CF93DF9300D000D0CDB7DEB78091C301D8
:1006C0009091C401892B09F452C0C0D0322E432E20
:1006D000542E652E762E7C838B83292E8090C30129
:1006E0009090C401D4010D90BC91A02DBA83A98330
:1006F000E091C201A090BA01B090BB01C090BC01D2
:10070000D090BD01E090BE01F090BF010091C0010A
:100710001091C10193D18D010E0F111D0E0F111DEE
:10072000D8011196AC90B12CC12CD12CE12CF12C1C
:1007300000E010E08CD1A8F0EF5FE093C2013092AE
:10074000BA014092BB015092BC016092BD0170920F
:10075000BE01BC81B093BF01FB81F093C001209228
:10076000C101D40112968C91E817C8F083DF80E0B4
:100770000F900F900F900F90DF91CF911F910F91DD
:10078000FF90EF90DF90CF90BF90AF909F908F90B1
:100790007F906F905F904F903F902F900895A98128
:1007A000BA81AE0FB11DAE0FB11D8C9144DF81E057
:1007B000DFCF0F920FB60F921F9211242F933F930A
:1007C0004F935F936F937F938F939F93AF932091FA
:1007D000C5013091C6014091C7015091C801609197
:1007E000C9017091CA018091CB019091CC01A1E027
:1007F00019D12093C5013093C6014093C70150938E
:10080000C8016093C9017093CA018093CB01909392
:10081000CC01AF919F918F917F916F915F914F919B
:100820003F912F911F900F900FBE0F9018951ABCFB
:1008300013BE8AB582608ABD83B7856083BF83ECAF
:1008400089BD12BE89B7806189BF0895F89420914F
:10085000C5013091C6014091C7015091C801609116
:10086000C9017091CA018091CB019091CC0178941B
:10087000089580E886BD16BCDADFD8DE43DE63DD8E
:1008800097DD1CDEE0916100F091620080E48083DE
:1008900088E1818318DC86E090E09093B101809339
:1008A000B001D4DF2093B2013093B3014093B4017F
:1008B0005093B5016093B6017093B7018093B8016E
:1008C0009093B901C3DF19012A013B014C01A090AB
:1008D000B201B090B301C090B401D090B501E090E6
:1008E000B601F090B7010091B8011091B901A6D0FE
:1008F000ABE0B6D0C0F18091B0019091B10100E0C1
:1009000010E08430910540F4FC01E756FF4F108160
:100910008B569F4FFC010081E0916100F0916200D5
:10092000110F110F110F8081180F000F000F000F12
:100930008181080F602F812FA4DB602F811549F181
:10094000812FE9DB89DC2092B2013092B301409221
:10095000B4015092B5016092B6017092B7018092D5
:10096000B8019092B901E7DDEC019093A701809363
:10097000A6018530910539F5DCDCFFEF29E688E139
:10098000F15020408040E1F700C00000D5DC80DE5F
:1009900099CF812F82DB811559F071DE811103C05F
:1009A00083EA90E04FDEC5DC602F812FC7DBCACF22
:1009B00017FD07C0003428F4602F812FBFDBBCDC9B
:1009C000C1CFB7DCBFCF0697029708F3D093B10130
:1009D000C093B001DCCFAA1BBB1B51E107C0AA1F0B
:1009E000BB1FA617B70710F0A61BB70B881F991FD0
:1009F0005A95A9F780959095BC01CD01089597FB74
:100A0000072E16F4009406D077FD08D0E4DF07FC2B
:100A100005D03EF4909581959F4F0895709561950E
:100A20007F4F08950024A7FD00942A0F301D401D1C
:100A3000501D601D701D801D901D08952A193B09D1
:100A40004C095D096E097F09800B910B08952A15E9
:100A50003B054C055D056E057F05800791070895F0
:100A60000024A7FD00942A173005400550056005B5
:100A700070058005900508958F929F92AF92BF9266
:100A8000CF92DF92EF92FF92CF93DF93EC016881D8
:100A900079818A819B81611571058105910521F418
:100AA00064E279ED8BE597E02DE133EF41E050E032
:100AB00055D049015A0127EA31E440E050E035D0F1
:100AC0006B017C012CEE34EF4FEF5FEFC501B401F9
:100AD0002CD0DC01CB018C0D9D1DAE1DBF1DB7FFC1
:100AE00003C00197A109B04888839983AA83BB8377
:100AF0009F77DF91CF91FF90EF90DF90CF90BF90E5
:100B0000AF909F908F900895B7DF089581E990E0AE
:100B1000B3DF0895B0E0A0E080939100909392003D
:100B2000A0939300B09394000895EE27FF27AA277F
:100B3000BB2708C0A20FB31FE41FF51F220F331FEE
:100B4000441F551F969587957795679598F3704044
:100B5000A9F7009799F7BD01CF010895052E97FBDE
:100B600016F400940FD057FD05D014D007FC02D026
:100B700046F408C050954095309521953F4F4F4F12
:100B80005F4F089590958095709561957F4F8F4F39
:100B90009F4F0895A1E21A2EAA1BBB1BFD010DC099
:100BA000AA1FBB1FEE1FFF1FA217B307E407F5071D
:100BB00020F0A21BB30BE40BF50B661F771F881FF9
:100BC000991F1A9469F760957095809590959B018F
:0C0BD000AC01BD01CF010895F894FFCFE7
:100BDC0002A800A600FF818181818181FFFF81A590
:100BEC009999A581FF770A8E05770A8E0A77058E6B
:100BFC000A7F0A9F0ABE0AEF05D505EF05D505EF5A
:100C0C000501000000FF000100000100FF7500035A
:060C1C007B0003810008CB
:00000001FF
