:100000008DC2A7C2A6C2A5C2A4C2A3C2A2C2A1C2D7
:10001000A0C29FC231C69DC29CC29BC29AC205EEBD
:100020000005E90005E40005DF0004DB0004D7005B
:1000300004D20004CE0001CD0003CA0004C60003B0
:10004000C30007BC0005B70005B20004AE0005A957
:100050000005A40004A000059B0005960005910082
:10006000078A00058500058000047C0004780000F4
:10007000030108FB0008F30000000000C4A4948CF6
:100080000408F0080484483048840C30C030C03084
:100090000C0C30C0300C7C8080807C0404FC040498
:1000A0004894A448FC242424D87884A444B8FC248C
:1000B00024187884848478FC0C30C0FCFC0C30C09C
:1000C000300CFCFC8080FC304884C0807CFCFC1040
:1000D00010FC788484A4E8FC141404FC949484FC3C
:1000E000848484787884848448FC94949468C030B0
:1000F0002C30C0FF818181818181FFFF81A5999989
:10010000A581FFE0E0E0E0F0F8FF7F3F1F8FC7C769
:10011000CFCFCF8F8F8F8F9F1F3F7F7F7FFFFFFFBF
:10012000FFFFFFFFFF1F1F1F1F1F1F1F3F3F3FFF3F
:10013000FFFFFFFFFFFFFFFFFFFFFFFFFFFFFFFFCF
:10014000FFFFFFFFFF7F7F7F7F7FFFFFFFFFFFFF3F
:10015000FFFFFFFFFFFFFFFFFFFFFFFFFFFFFFFFAF
:10016000FFFFFFFFFFFF7F7F7F7F7F7F7F7F7F7F9F
:10017000FFFFFFFFFFFFFFFFFFFFFFFFFFFFF8F0A5
:10018000E0E0E0FFFFFFFFFFFFFF000000FFFFFFD9
:10019000FFFFFFFFFFFFFFFFFFFF03000000010362
:1001A000030303010000FEFEFFFFFFFEFEFE000052
:1001B00003070F9F9F9F9F9F9F9F9F9F9F9F9F9F13
:1001C0009F8F87830178FCFEFEFEFEFFFFFDFBF79D
:1001D000E7070F1F1F1F1F9F9F9FBF7F7F7F7F3FCF
:1001E0001F0F0703C1E0F0F8FCFCFCFCFCFCFCFC6E
:1001F000FCFCFCFCF8F0E0C103071F7FFFFFFFFFE2
:10020000FFFFFFFFFFFFFFFFFFFFFC0000FFFFFFFF
:10021000FFFFFFFFFFFFFFFFFFFFC0000000000028
:100220000000000000C0FFFFFFFFFFFFFFFF000016
:1002300000FEFFFFFFFFFFFFFFFF1F0F070707077E
:10024000070707070F000001FFFFFFFFFFFFFFFF8A
:10025000FFF00000001E3FFFFFFFFFFFFEFCF8C0A5
:100260000000C0F8FFFFFFFFFFFFFFFF7F0301005B
:100270000000000103FFFFFFFFFEFCF8F3870F0FF4
:100280000FFFFFFFFFFFFFFFFFFF3F0000FFFFFF2C
:10029000FFFFFFFFFFFFFFFFFFFFFF7F3E1E1E1E52
:1002A0001E3E7EFEFFFFFFFFFFFFFFFFFFFF000080
:1002B00000FFFFFFFFFFFFFFFFFFFEFCF8F8F0F07D
:1002C000F0F0F8F8FCFC78001FFFFFFFFFFFFFFFD6
:1002D0007F0F000000000001FFFFFFFFFFFFFFFF97
:1002E0000000FFFFFFFFFFFFFFFFFFFF0000000018
:1002F00000000000FCFFFFFFFFFFFFFFFFFF00000B
:10030000E0FFFFFFFFFFFFFFFFFF0000003FFFFFD9
:10031000FFFFFFFFFFFFFFFFFFFFFF0000000000E8
:10032000000000FFFFFFFFFFFFFFFFFFFFFF0000D8
:1003300000FFFFFFFFFFFFFFFFFFFFC38100000083
:100340000000000000000080003F7FFFFFFFFFF083
:10035000E0C0C04040201000FFFFFFFFFFFFFFFF95
:100360000000030F1F3F7FFFFFFFFFC08000000062
:100370000080C0F8FFFFFFFFFFFFFF7F3F0F00F08F
:10038000FFFFFFFFFFFFFFFFFFFF00000000FFFF79
:10039000FFFFFFFFFFFFFFFFFFFFFF000000000068
:1003A000000000FFFFFFFFFFFFFFFFFFFFFF000058
:1003B000000103070707070F8F8F8F878F8F8F8F9E
:1003C0008F8F8F8F8F8787E3F0F8F8F8F8F8F9F1BF
:1003D000F1F1F0F0F0F0E0C000071F3F7FFFFFFFFA
:1003E000FEFCF8F8F8F8FC7E3D03070787C7C7C78F
:1003F000C7C7C7C7E3E1E1E1E0F0F8FCFEFFFFFF9C
:10040000FFFFFFFFFFFFFFFFFFFFFEF0E0C0878F52
:100410009FBFBFBFBFFFFFFFBF878780C0E0E0E097
:10042000E0C08F9FBFBFBFBFBFBFBF9F8F8780C0D0
:10043000E0FCFEFFFFFFFFFFFFFFFFFFFFFFFFFFEF
:10044000FFFFFFFFFFFFFFFFFFFFFFFFFFFFFFFFBC
:10045000FFFFFFFFFFFFFFFFFFFEFCF8F8F8F8F8D3
:10046000F8F8F0F0F0F0F0F0F8FCFEFFFFFFFFFF0F
:10047000FFFFFFFFFFFFFFFFFFFFFFFFFFFFFFFF8C
:10048000FFFFFF030303070FFFFFFFFFFFFFFFFF58
:10049000FFFFFFFFFFFFFFFFFFFFFFFFFFFFFFFF6C
:1004A000FFFFFFFFFFFFFFFFFFFFFFFFFFFFFFFF5C
:1004B000FFFFFFFFFFFFFFFFFFFFFFFFFFFFFFFF4C
:1004C000FFFFFFFFFFFFFFFFFFFFFFFFFFFFFFFF3C
:1004D000FFFFFFFFFFFFFFFFFFFFFFFFFFFFFFFF2C
:1004E000FFFFFFFFFFFFFFFFFFFFFFFFFFFFFFFF1C
:1004F000FFFFFFFFFFFFFFFFFFFFFFFFFFFF1F0FDC
:10050000070707AE2000C840817FA1A6A83FD300FF
:10051000D580D922DA12DB208D14A4AF11241FBE9E
:10052000CFE5D2E0DEBFCDBF10E0A0E6B0E0E4E36F
:10053000F1E102C005900D92A23DB107D9F721E08B
:10054000A2EDB0E001C01D92A33FB207E1F7F4D3E2
:10055000EFC556CDE0916300F0916400908198134F
:1005600003C081E09181961380E00895E0916100DD
:10057000F0916200209163003091640032972E1751
:100580003F0711F480E0089590819813F7CF91818F
:100590009613F4CF81E008950F931F93CF93DF93C9
:1005A00000E110E0C8E0D0E054D5E0916300F091A4
:1005B0006400B801C7D4880F880F880F808349D59D
:1005C000E0916300F0916400BE01BCD4682F660F17
:1005D000660F660F61838081C9DF8111E5CFDF91EE
:1005E000CF911F910F910895E0916100F091620009
:1005F0009F012E5F3F4F30936200209361009091E6
:1006000060009F5F9093600082836383C5CF2091D9
:1006100060002150330BE2EDF0E040E050E04F5F2E
:100620005F4F32964217530744F0E0916100F0911A
:1006300062008083618381E0089592819083938139
:100640009183EDCF2F923F924F925F926F927F9264
:100650008F929F92AF92BF92CF92DF92EF92FF92D2
:100660000F931F93CF93DF9300D00F92CDB7DEB7D8
:10067000382E292E2B016FE780E02FD167E080E034
:100680001ED117D1C12CD12C9E012F5F3F4F590194
:1006900088E0682E712CE12CF12C43E050E06FE6ED
:1006A00070E0C501E5D4F2013081032D122D20E068
:1006B000C501321799F0F80140814E151F0409F069
:1006C0003FC041814C151D04D9F543E050E065E77A
:1006D00070E0211102C062E770E0CAD4912C8981D8
:1006E000981690F1812C912C89819301281B310956
:1006F000821693068CF138E0E30EF11C80E8E816D0
:10070000F10459F698E0C90ED11CE0E4CE16D104EC
:1007100011F6D4D00F900F900F90DF91CF911F91D1
:100720000F91FF90EF90DF90CF90BF90AF909F9090
:100730008F907F906F905F904F903F902F90089593
:100740002F5F0E5F1F4FB5CFEA81FB81E90DF11DD1
:10075000849196D09394C3CF80E092D0FFEF8F1A0C
:100760009F0AC2CFBF92CF92DF92EF92FF920F9378
:100770001F93CF93DF93CDB7DEB7E9970FB6F89409
:10078000DEBF0FBECDBF6FE780E0A7D067E080E09F
:1007900096D08FD086E3E3E9F0E0DE011196019078
:1007A0000D928A95E1F78E010F5F1F4F6E0187E36F
:1007B000C80ED11CEC2CBD2CF801819191918F01B8
:1007C00063E070E09AD3BC01625E7F4F43E050E08B
:1007D0008E2D9B2D4DD4F12C8FA9F816C0F080E002
:1007E0004FD080E04DD00C151D0531F767D0E9964C
:1007F0000FB6F894DEBF0FBECDBFDF91CF911F9132
:100800000F91FF90EF90DF90CF90BF900895E8ADEB
:10081000F9ADEF0DF11D849133D0F394DDCFB89A8B
:10082000BA9AC29AC09A8FEF8FB98AE28DB980EED8
:100830008EB90895C09AC29AC29BFECFC098C29842
:10084000C09A0895C098C29AC29BFECFC09A0895DC
:10085000C2988EB9769B04C080B39FEF9FB908956C
:10086000689A82E08A95F1F700C0689A82E08A95DA
:10087000F1F700C0EFCFB8988EEFEADFB89A08958D
:100880008FB980EFE5DFF7CFD5DF88E7F9DF80E0CC
:10089000F7CFCF93DF93F8DFC3E0D5E0FE0184917B
:1008A000EFDF2196F5E0C032DF07C1F7DF91CF918E
:1008B000C9CFC0DF88E7E4DF80E4E2CFC3CFCF93C6
:1008C000DF93D82FC62FE0DF82E2DADF8D2FD8DF6B
:1008D0008C2FD6DFDF91CF91B5CFCF93DF93D82F79
:1008E000C62FD2DF81E2CCDF8D2FCADF8C2FC8DF8D
:1008F000DF91CF91A7CFEF92FF920F931F93CF93EA
:10090000DF938C017B01D5DFC0E0D0E0C017D107B9
:100910003CF0DF91CF911F910F91FF90EF9092CF1C
:10092000F701EC0FFD1F8491ABDF2196EFCFCF9342
:10093000DF936FE780E0D1DF67E080E0C0DFB9DF01
:10094000C0E0D4E080E09CDF2197E1F7DF91CF9118
:1009500079CF6FE780E4C1DF63E083E0B0DFA9DF38
:100960008FEF8EDF80E08CDF8FEF8ADF80E088DF23
:100970008FEF86DF67CF67E080E0A1DF6FE780E081
:10098000ACDF63E071E080E094E0B5CF86B18668CB
:1009900086B9089525E080E090E0369A369BFECF38
:1009A00044B135B1532F840F951F2A95B1F765E0F7
:1009B00070E0B4D2CB010895DF92EF92FF920F93D3
:1009C0001F93CF93DF93399A389808EC10E0D12C1D
:1009D000E12CF12CF894DEDFEC017894805B9240FE
:1009E000879738F4D3948AE0D816A8F085E090E091
:1009F00017C0CE018A529140879738F4E3948AE079
:100A0000E81648F086E090E00BC0259720F4F394B8
:100A10008AE0F81668F401501040E1F688E090E0B2
:100A2000DF91CF911F910F91FF90EF90DF9008958C
:100A300087E090E0F5CFBF92CF92DF92EF92FF92E6
:100A40000F931F93CF93DF9387B1836087B908EC2F
:100A500010E0B12CC12CD12CE12CF12CF8949ADFB0
:100A6000EC0178948F539340879738F4B3948AE0DD
:100A7000B81668F180E090E02FC0CE01805C924013
:100A8000879738F4C3948AE0C81608F181E090E0B3
:100A900023C0CE01805F9140879738F4E3948AE0C9
:100AA000E816A8F083E090E017C0CE01895391408A
:100AB000879738F4D3948AE0D81648F082E090E023
:100AC0000BC0259720F4F3948AE0F81678F40150CF
:100AD000104021F688E090E0DF91CF911F910F91B7
:100AE000FF90EF90DF90CF90BF90089587E090E067
:100AF000F3CF80B7866680BF1FBC08958DBD8695F5
:100B00008EBDB99A0895B99808959093EA0180939B
:100B1000E9011092E801FDD02093E0013093E1015A
:100B20004093E2015093E3016093E4017093E50187
:100B30008093E6019093E70108951092EA011092E4
:100B4000E901E1CF81E02091E9013091EA01232B15
:100B500009F480E008952F923F924F925F926F9236
:100B60007F928F929F92AF92BF92CF92DF92EF923D
:100B7000FF920F931F93CF93DF9300D000D0CDB798
:100B8000DEB78091E9019091EA01892B09F452C006
:100B9000C0D0322E432E542E652E762E7C838B832E
:100BA000292E8090E9019090EA01D4010D90BC912A
:100BB000A02DBA83A983E091E801A090E001B09054
:100BC000E101C090E201D090E301E090E401F090F7
:100BD000E5010091E6011091E701D3D18D010E0FDF
:100BE000111D0E0F111DD8011196AC90B12CC12C06
:100BF000D12CE12CF12C00E010E0CCD1A8F0EF5F7B
:100C0000E093E8013092E0014092E1015092E2016C
:100C10006092E3017092E401BC81B093E501FB8135
:100C2000F093E6012092E701D40112968C91E81727
:100C3000C8F083DF80E00F900F900F900F90DF914E
:100C4000CF911F910F91FF90EF90DF90CF90BF90C9
:100C5000AF909F908F907F906F905F904F903F905C
:100C60002F900895A981BA81AE0FB11DAE0FB11DAD
:100C70008C9144DF81E0DFCF0F920FB60F921F926D
:100C800011242F933F934F935F936F937F938F9391
:100C90009F93AF932091EB013091EC014091ED01D6
:100CA0005091EE016091EF017091F0018091F1019E
:100CB0009091F201A1E059D12093EB013093EC0126
:100CC0004093ED015093EE016093EF017093F001BA
:100CD0008093F1019093F201AF919F918F917F9159
:100CE0006F915F914F913F912F911F900F900FBE89
:100CF0000F9018951ABC13BE8AB582608ABD83B75F
:100D0000856083BF83EC89BD12BE89B7806189BFCE
:100D10000895F8942091EB013091EC014091ED01A0
:100D20005091EE016091EF017091F0018091F1011D
:100D30009091F2017894089500D000D000D0CDB702
:100D4000DEB780E886BD16BCD5DFD3DE1FDE67DDEB
:100D5000A0DDEDDD1092DF011092DE01E091610077
:100D6000F091620080E4808388E1818315DC87E074
:100D700090E09093D5018093D401CBDF2093D601EE
:100D80003093D7014093D8015093D9016093DA0191
:100D90007093DB018093DC019093DD016624639402
:100DA000712C8091DE019091DF01892BA1F080915F
:100DB000DE019091DF010197B9F08091DE01909101
:100DC000DF01029771F7F8DD0697B9F77092DF013E
:100DD0006092DE01F2CFC6DCEFDD069711F770926C
:100DE000DF016092DE01DDCF94DF19012A016E83FD
:100DF0007D838B839C83A090D601B090D701C09057
:100E0000D801D090D901E090DA01F090DB01009197
:100E1000DC011091DD01B5D0A6E0C5D008F445C0D5
:100E20008091D4019091D50100E010E087309105C8
:100E300040F4FC01E457FF4F10818B579F4FFC019A
:100E40000081E0916100F0916200110F110F110F0C
:100E50008081180F000F000F000F8181080F1F778E
:100E60000F73602F812F76DB602F811579F1812F31
:100E7000BBDB89EC90E049DE60E670E082ED90E05B
:100E8000E1DB2092D6013092D7014092D8015092F6
:100E9000D901FE81F093DA018D818093DB019B8182
:100EA0009093DC01EC81E093DD0186DD89839A83F8
:100EB000C2DD4C0189819A810597B1F43EDE92E052
:100EC0009093DE011092DF0146DE71CF812F4EDB61
:100ED000811531F037DE811103C08FEC90E015DE13
:100EE000602F812F94DBC8CFC4010797029760F36E
:100EF0009092D5018092D401E7CF0024552704C0F9
:100F0000080E591F880F991F009729F0769567954D
:100F1000B8F37105B9F7802D952F0895AA1BBB1B57
:100F200051E107C0AA1FBB1FA617B70710F0A61BE9
:100F3000B70B881F991F5A95A9F780959095BC010A
:100F4000CD01089597FB072E16F4009406D077FD87
:100F500008D0E4DF07FC05D03EF4909581959F4FC3
:100F60000895709561957F4F08950024A7FD009422
:100F70002A0F301D401D501D601D701D801D901DCD
:100F800008952A193B094C095D096E097F09800BF8
:100F9000910B08952A153B054C055D056E057F05EF
:100FA0008007910708950024A7FD00942A173005B3
:100FB00040055005600570058005900508958F92E5
:100FC0009F92AF92BF92CF92DF92EF92FF92CF9318
:100FD000DF93EC01688179818A819B8161157105BC
:100FE0008105910521F464E279ED8BE597E02DE12F
:100FF00033EF41E050E05ED049015A0127EA31E485
:1010000040E050E03ED06B017C012CEE34EF4FEF1E
:101010005FEFC501B40135D0DC01CB018C0D9D1D06
:10102000AE1DBF1DB7FF03C00197A109B04888835B
:101030009983AA83BB839F77DF91CF91FF90EF9035
:10104000DF90CF90BF90AF909F908F900895B7DFC3
:10105000089581E890E0B3DF0895B0E0A0E08093C8
:10106000810090938200A0938300B0938400089540
:10107000FB01DC0102C005900D9241505040D8F7B1
:101080000895EE27FF27AA27BB2708C0A20FB31F8A
:10109000E41FF51F220F331F441F551F9695879598
:1010A0007795679598F37040A9F7009799F7BD0178
:1010B000CF010895052E97FB16F400940FD057FD2D
:1010C00005D014D007FC02D046F408C050954095D6
:1010D000309521953F4F4F4F5F4F089590958095E4
:1010E000709561957F4F8F4F9F4F0895A1E21A2E03
:1010F000AA1BBB1BFD010DC0AA1FBB1FEE1FFF1FBC
:10110000A217B307E407F50720F0A21BB30BE40B0B
:10111000F50B661F771F881F991F1A9469F7609552
:101120007095809590959B01AC01BD01CF0108950C
:04113000F894FFCF61
:1011340002D400D200770A8E05770A8E0A77058ECC
:101144000A7F0A9F0ABE0AEF05D505EF05D505EF0C
:101154000501000000FF00010000FF01000100FF85
:1011640000FF0112000D0000000A0004001A001123
:101174000008000600070013001A00010014001301
:101184000013000E000D001A0013000E001A0012C6
:101194000013000000110013006500036B000371CD
:0211A400000841
:00000001FF
