:10000000E1C2FBC2FAC2F9C2F8C2F7C2F6C2F5C237
:10001000F4C2F3C2FBC7F1C2F0C2EFC2EEC26E651A
:1000200077200073636F7265200073657373696F67
:100030006E20626573742000616C6C2074696D655C
:100040002062657374200067616D65206F7665724C
:1000500000736E616B650004F000021201040E0172
:10006000040A0104060103030104FF0003FC000469
:10007000F80004F400058601058101057C0105777F
:1000800001047301046F01046A0104660101650142
:10009000036201045E01035B01075401054F010582
:1000A0004A01044601054101053C010438010533BC
:1000B00001052E01052901072201051D0105180171
:1000C000041401001401021201040E01040A0104C7
:1000D000060103030104FF0003FC0004F80004F41C
:1000E0000004F00008A301089B01089301088B019C
:1000F00078848478489494786894946804F40C78AC
:100100009494609C94646058FC4048849468C8A4AB
:10011000A49808FCC4A4948C0408F0080484483013
:1001200048840C30C030C0300C0C30C0300C7C80A7
:1001300080807C0404FC04044894A448FC24242407
:10014000D87884A444B8FC2424187884848478FC67
:100150000C30C0FCFC0C30C0300CFCFC8080FC304F
:100160004884C0807CFCFC1010FC788484A4E8FCEB
:10017000141404FC949484FC8484847878848484A7
:1001800048FC94949468C0302C30C0FF81819999C8
:100190008181FFFF818181818181FF81422410085B
:1001A0002442810000000000000000E0E0E0E0F0F8
:1001B000F8FF7F3F1F8FC7C7CFCFCF8F8F8F8F9F06
:1001C0001F3F7F7F7FFFFFFFFFFFFFFFFF1F1F1FFF
:1001D0001F1F1F1F3F3F3FFFFFFFFFFFFFFFFFFFEF
:1001E000FFFFFFFFFFFFFFFFFFFFFFFFFF7F7F7F9F
:1001F0007F7FFFFFFFFFFFFFFFFFFFFFFFFFFFFF0F
:10020000FFFFFFFFFFFFFFFFFFFFFFFFFFFF7F7FFE
:100210007F7F7F7F7F7F7F7FFFFFFFFFFFFFFFFFEE
:10022000FFFFFFFFFFFFF8F0E0E0E0FFFFFFFFFF51
:10023000FFFF000000FFFFFFFFFFFFFFFFFFFFFFCB
:10024000FFFF030000000103030303010000FEFEA3
:10025000FFFFFFFEFEFE000003070F9F9F9F9F9F73
:100260009F9F9F9F9F9F9F9F9F8F87830178FCFEEB
:10027000FEFEFEFFFFFDFBF7E7070F1F1F1F1F9F7F
:100280009F9FBF7F7F7F7F3F1F0F0703C1E0F0F875
:10029000FCFCFCFCFCFCFCFCFCFCFCFCF8F0E0C105
:1002A00003071F7FFFFFFFFFFFFFFFFFFFFFFFFFB2
:1002B000FFFFFC0000FFFFFFFFFFFFFFFFFFFFFF4F
:1002C000FFFFC000000000000000000000C0FFFFB2
:1002D000FFFFFFFFFFFF000000FEFFFFFFFFFFFF2C
:1002E000FFFF1F0F07070707070707070F0000019A
:1002F000FFFFFFFFFFFFFFFFFFF00000001E3FFFBB
:10030000FFFFFFFFFEFCF8C00000C0F8FFFFFFFF8B
:10031000FFFFFFFF7F0301000000000103FFFFFF5D
:10032000FFFEFCF8F3870F0F0FFFFFFFFFFFFFFF3C
:10033000FFFF3F0000FFFFFFFFFFFFFFFFFFFFFF8B
:10034000FFFFFF7F3E1E1E1E1E3E7EFEFFFFFFFFC5
:10035000FFFFFFFFFFFF000000FFFFFFFFFFFFFFAA
:10036000FFFFFEFCF8F8F0F0F0F0F8F8FCFC780085
:100370001FFFFFFFFFFFFFFF7F0F000000000001D6
:10038000FFFFFFFFFFFFFFFF0000FFFFFFFFFFFF7B
:10039000FFFFFFFF0000000000000000FCFFFFFF68
:1003A000FFFFFFFFFFFF0000E0FFFFFFFFFFFFFF7A
:1003B000FFFF0000003FFFFFFFFFFFFFFFFFFFFF0A
:1003C000FFFFFF0000000000000000FFFFFFFFFF35
:1003D000FFFFFFFFFFFF000000FFFFFFFFFFFFFF2A
:1003E000FFFFFFC38100000000000000000000804C
:1003F000003F7FFFFFFFFFF0E0C0C0404020100043
:10040000FFFFFFFFFFFFFFFF0000030F1F3F7FFF06
:10041000FFFFFFC0800000000080C0F8FFFFFFFF6B
:10042000FFFFFF7F3F0F00F0FFFFFFFFFFFFFFFF1A
:10043000FFFF00000000FFFFFFFFFFFFFFFFFFFFC8
:10044000FFFFFF0000000000000000FFFFFFFFFFB4
:10045000FFFFFFFFFFFF0000000103070707070F73
:100460008F8F8F878F8F8F8F8F8F8F8F8F8787E360
:10047000F0F8F8F8F8F8F9F1F1F1F0F0F0F0E0C088
:1004800000071F3F7FFFFFFFFEFCF8F8F8F8FC7E37
:100490003D03070787C7C7C7C7C7C7C7E3E1E1E190
:1004A000E0F0F8FCFEFFFFFFFFFFFFFFFFFFFFFF95
:1004B000FFFFFEF0E0C0878F9FBFBFBFBFFFFFFF02
:1004C000BF878780C0E0E0E0E0C08F9FBFBFBFBFB5
:1004D000BFBFBF9F8F8780C0E0FCFEFFFFFFFFFF15
:1004E000FFFFFFFFFFFFFFFFFFFFFFFFFFFFFFFF1C
:1004F000FFFFFFFFFFFFFFFFFFFFFFFFFFFFFFFF0C
:10050000FFFEFCF8F8F8F8F8F8F8F0F0F0F0F0F08A
:10051000F8FCFEFFFFFFFFFFFFFFFFFFFFFFFFFFF6
:10052000FFFFFFFFFFFFFFFFFFFFFF030303070FB7
:10053000FFFFFFFFFFFFFFFFFFFFFFFFFFFFFFFFCB
:10054000FFFFFFFFFFFFFFFFFFFFFFFFFFFFFFFFBB
:10055000FFFFFFFFFFFFFFFFFFFFFFFFFFFFFFFFAB
:10056000FFFFFFFFFFFFFFFFFFFFFFFFFFFFFFFF9B
:10057000FFFFFFFFFFFFFFFFFFFFFFFFFFFFFFFF8B
:10058000FFFFFFFFFFFFFFFFFFFFFFFFFFFFFFFF7B
:10059000FFFFFFFFFFFFFFFFFFFFFFFFFFFFFFFF6B
:1005A000FFFFFFFFFFFF1F0F070707AE2000C84038
:1005B000817FA1A6A83FD300D580D922DA12DB2003
:1005C0008D14A4AF11241FBECFE5D2E0DEBFCDBF96
:1005D00010E0A0E6B0E0E2E8F5E102C005900D927F
:1005E000A23FB107D9F722E0A2EFB0E001C01D920F
:1005F000A531B207E1F76AD567C702CDE091630084
:10060000F09164009081981303C081E0918196136A
:1006100080E0089520916000E2EFF0E091E0921711
:1006200010F080E008953281381303C0338136170B
:1006300019F09F5F3296F3CF81E008950F931F93D7
:10064000CF93DF9300E110E0C8E0D0E0C5D6E091A1
:100650006300F0916400B80138D6880F880F880FC6
:100660008083BAD6E0916300F0916400BE012DD67C
:10067000682F660F660F660F61838081CBDF811163
:10068000E5CFDF91CF911F910F910895E091610027
:10069000F09162009F012E5F3F4F309362002093E4
:1006A0006100909160009F5F9093600082836383FC
:1006B000C5CF209160002150330BE2EFF0E040E025
:1006C00050E04F5F5F4F32964217530744F0E0917E
:1006D0006100F09162008083618381E008959281DE
:1006E000908393819183EDCF84EF90E090936200AB
:1006F0008093610080E48093F40088E18093F500AA
:1007000082E08093600087E090E09093F501809311
:10071000F401D0D26FE780E0A3D267E080E092D20C
:1007200081E590E00FD26FE780E09AD267E081E048
:1007300089D288E390E006D28091F701F1D16FE78A
:1007400080E08ED267E082E07DD28AE290E0FAD14A
:100750008091F601E5D1F3D20697E9F7A4D4C90157
:100760003FD66CCFCF938FEE90E097D36FE780E0CA
:1007700077D267E080E066D287E490E0E3D16091D1
:100780006000262F2150330BC9012091F701281753
:10079000190654F561506093F7016093F60180915A
:1007A000000290910102E8D16FE780E059D267E042
:1007B00081E048D28EE190E0C5D188E390E0C2D1DB
:1007C000C2E06FE780E04CD267E08C2F3BD283E23F
:1007D00090E0B8D1809160008150A2D1B0D205974D
:1007E000C1F456D3CF9180CF2091F601C1E02817F4
:1007F00019063CF761506093F6016FE780E030D254
:1008000067E081E01FD28EE190E09CD18AE290E027
:10081000D6CF6BD3E3CF2F923F924F925F926F92DE
:100820007F928F929F92AF92BF92CF92DF92EF9280
:10083000FF920F931F93CF93DF9300D00F92CDB70A
:10084000DEB7382E292E2B016FE780E009D267E052
:1008500080E0F8D1F1D1C12CD12C9E012F5F3F4F08
:10086000590188E0682E712CE12CF12C43E050E016
:1008700064EE70E0C501BFD5F2014081032D122D59
:1008800020E0C501421791F0F80130813E151F04A8
:1008900009F04FC031813C151D0409F04AC02111F7
:1008A00039C043E050E067EE70E0A5D5912C898116
:1008B000981608F442C0812C912C89819301281B41
:1008C0003109821693060CF440C038E0E30EF11CA7
:1008D00080E8E816F10451F698E0C90ED11CE0E476
:1008E000CE16D10409F6ADD10F900F900F90DF9185
:1008F000CF911F910F91FF90EF90DF90CF90BF901D
:10090000AF909F908F907F906F905F904F903F90AF
:100910002F9008954150550B2417150629F443E0F4
:1009200050E06DEE70E0C1CF43E050E06AEE70E061
:10093000BCCF2F5F0E5F1F4FA5CFEA81FB81E90D72
:10094000F11D849160D19394B2CF80E05CD1FFEF30
:100950008F1A9F0AB2CF1F93CF93DF9300D00F92CD
:10096000CDB7DEB780528B3568F4E82F880FFF0BC8
:10097000EA59F54F099443E050E065E770E0CE0195
:10098000019639D559D110E08981181708F4C0C0F3
:1009900080E039D180E037D154D10F900F900F9083
:1009A000DF91CF911F91089543E050E068E770E038
:1009B000E6CF43E050E06BE770E0E1CF43E050E08A
:1009C0006EE770E0DCCF43E050E061E870E0D7CF45
:1009D00043E050E064E870E0D2CF43E050E067E8E5
:1009E00070E0CDCF43E050E06AE870E0C8CF43E06C
:1009F00050E06DE870E0C3CF43E050E060E970E0A4
:100A0000BECF43E050E063E970E0B9CF43E050E08F
:100A100066E970E0B4CF43E050E069E970E0AFCF41
:100A200043E050E06CE970E0AACF43E050E06FE9AA
:100A300070E0A5CF43E050E062EA70E0A0CF43E071
:100A400050E065EA70E09BCF43E050E068EA70E078
:100A500096CF43E050E06BEA70E091CF43E050E086
:100A60006EEA70E08CCF43E050E061EB70E087CF3E
:100A700043E050E064EB70E082CF43E050E067EB8E
:100A800070E07DCF43E050E06AEB70E078CF43E068
:100A900050E06DEB70E073CF43E050E060EC70E04D
:100AA0006ECF43E050E063EC70E069CF43E050E08C
:100AB00066EC70E064CF43E050E069EC70E05FCF3B
:100AC00043E050E06CEC70E05ACF43E050E06FEC54
:100AD00070E055CF43E050E062ED70E050CF43E06E
:100AE00050E065ED70E04BCF43E050E068ED70E022
:100AF00046CF43E050E06BED70E041CF43E050E083
:100B00006EED70E03CCF43E050E061EE70E037CF37
:100B1000EA81FB81E10FF11D849175D01F5F34CF15
:100B2000CF93DF932AE0622FB0D3C92FAED3D92F52
:100B3000805D11DF80E38D0F0EDF80E38C0FDF918E
:100B4000CF9109CFEF92FF920F931F93CF938C0118
:100B50005BD47C01C0E0EC2FF0E0CE151F0434F034
:100B6000CF911F910F91FF90EF900895E00FF11F2B
:100B70008491F1DECF5FEFCF9C01F894E199FECF35
:100B80001CBA3FBB2EBB6DBBE29AE19A78940895E4
:100B90009C01F894E199FECF3FBB2EBBE09A78947C
:100BA0008DB30895B89ABA9AC29AC09A8FEF8FB946
:100BB0008AE28DB980EE8EB90895C09AC29AC29B1E
:100BC000FECFC098C298C09A0895C098C29AC29B9E
:100BD000FECFC09A0895C2988EB9769B04C080B3A8
:100BE0009FEF9FB90895689A82E08A95F1F700C057
:100BF000689A82E08A95F1F700C0EFCFB8988EEF3F
:100C0000EADFB89A08958FB980EFE5DFF7CFD5DF37
:100C100088E7F9DF80E0F7CFCF93DF93F8DFCBEA07
:100C2000D5E0FE018491EFDF2196F5E0C83CDF07B7
:100C3000C1F7DF91CF91C9CFC0DF88E7E4DF80E45F
:100C4000E2CFC3CFCF93DF93D82FC62FE0DF82E26E
:100C5000DADF8D2FD8DF8C2FD6DFDF91CF91B5CFA4
:100C6000CF93DF93D82FC62FD2DF81E2CCDF8D2F39
:100C7000CADF8C2FC8DFDF91CF91A7CFEF92FF9211
:100C80000F931F93CF93DF938C017B01D5DFC0E0DF
:100C9000D0E0C017D1073CF0DF91CF911F910F91A9
:100CA000FF90EF9092CFF701EC0FFD1F8491ABDF27
:100CB0002196EFCFCF93DF936FE780E0D1DF67E03E
:100CC00080E0C0DFB9DFC0E0D4E080E09CDF2197A6
:100CD000E1F7DF91CF9179CF6FE780E4C1DF63E087
:100CE00083E0B0DFA9DF8FEF8EDF80E08CDF8FEF56
:100CF0008ADF80E088DF8FEF86DF67CF67E080E004
:100D0000A1DF6FE780E0ACDF6BEA71E080E094E0A8
:100D1000B5CF86B1866886B9089525E080E090E079
:100D2000369A369BFECF44B135B1532F840F951FB1
:100D30002A95B1F765E070E0B4D2CB010895DF9257
:100D4000EF92FF920F931F93CF93DF93399A3898C6
:100D500008EC10E0D12CE12CF12CF894DEDFEC0152
:100D60007894805B9240879738F4D3948AE0D816C1
:100D7000A8F085E090E017C0CE018A529140879795
:100D800038F4E3948AE0E81648F086E090E00BC07F
:100D9000259720F4F3948AE0F81668F40150104087
:100DA000E1F688E090E0DF91CF911F910F91FF90E5
:100DB000EF90DF90089587E090E0F5CFBF92CF925B
:100DC000DF92EF92FF920F931F93CF93DF9387B140
:100DD000836087B908EC10E0B12CC12CD12CE12C38
:100DE000F12CF8949ADFEC0178948F539340879715
:100DF00038F4B3948AE0B81668F180E090E02FC030
:100E0000CE01805C9240879738F4C3948AE0C8167C
:100E100008F181E090E023C0CE01805F9140879788
:100E200038F4E3948AE0E816A8F083E090E017C075
:100E3000CE0189539140879738F4D3948AE0D8162D
:100E400048F082E090E00BC0259720F4F3948AE00C
:100E5000F81678F40150104021F688E090E0DF9118
:100E6000CF911F910F91FF90EF90DF90CF90BF90A7
:100E7000089587E090E0F3CF80B7866680BF1FBCFF
:100E800008958DBD86958EBDB99A0895B998089537
:100E900010920C0210920B02F9CFCF93DF93D82F50
:100EA000C92FF6DFD0930B02C0930C0210920A02F6
:100EB000FAD020930202309303024093040250932D
:100EC00005026093060270930702809308029093D4
:100ED0000902DF91CF91089581E020910B023091BA
:100EE0000C02232B09F480E008952F923F924F9239
:100EF0005F926F927F928F929F92AF92BF92CF92AA
:100F0000DF92EF92FF920F931F93CF93DF9300D066
:100F100000D0CDB7DEB780910B0290910C02892BE7
:100F200009F452C0C0D0322E432E542E652E762E98
:100F30007C838B83292E80900B0290900C02D4012D
:100F40000D90BC91A02DBA83A983E0910A02A090D4
:100F50000202B0900302C0900402D0900502E0901B
:100F60000602F09007020091080210910902CCD10C
:100F70008D010E0F111D0E0F111DD8011196AC9091
:100F8000B12CC12CD12CE12CF12C00E010E0C5D10A
:100F9000A8F0EF5FE0930A0230920202409203024F
:100FA000509204026092050270920602BC81B093D6
:100FB0000702FB81F093080220920902D4011296E5
:100FC0008C91E817C8F064DF80E00F900F900F90CD
:100FD0000F90DF91CF911F910F91FF90EF90DF90D5
:100FE000CF90BF90AF909F908F907F906F905F90C9
:100FF0004F903F902F900895A981BA81AE0FB11DF7
:10100000AE0FB11D8C913DDF81E0DFCF0F920FB6A7
:101010000F921F9211242F933F934F935F936F93DF
:101020007F938F939F93AF9320910D0230910E0287
:1010300040910F02509110026091110270911202C2
:101040008091130290911402A1E052D120930D02DD
:1010500030930E0240930F025093100260931102DE
:10106000709312028093130290931402AF919F9198
:101070008F917F916F915F914F913F912F911F9031
:101080000F900FBE0F9018951ABC13BE8AB58260E0
:101090008ABD83B7856083BF83EC89BD12BE89B7E3
:1010A000806189BF0895F89420910D0230910E025D
:1010B00040910F0250911002609111027091120242
:1010C00080911302909114027894089500D000D07A
:1010D000CDB7DEB780E886BD16BCD6DFCDDE19DE23
:1010E00061DD9ADDE7DD2BDE059749F467DE0397C6
:1010F00031F460E080910002909101023DDD809129
:1011000000029091010244DD8093F701EDDA87E05F
:1011100090E09093F5018093F401C5DF2093F801EE
:101120003093F9014093FA015093FB016093FC0165
:101130007093FD018093FE019093FF01B4DF1901CC
:101140002A014B018C839B83A090F801B090F90198
:10115000C090FA01D090FB01E090FC01F090FD01FD
:101160000091FE011091FF01CFD0A6E0DFD008F47E
:101170004FC02091F4013091F50190E080E02730DC
:10118000310540F4F901E452FF4F80812B523F4F6B
:10119000F9019081E0916100F0916200182F110F28
:1011A000110F110F2081120F092F000F000F000FD8
:1011B0002181020F1F770F73892B8115B9F0602FE2
:1011C000812F1CDA602F811509F44DC0812F5EDA62
:1011D000809160008150990B2091F7012817190622
:1011E00069F5211559F18CEE90E057DE2092F80157
:1011F0003092F9014092FA015092FB018092FC0179
:101200009092FD01FC81F093FE018B818093FF01A0
:1012100096DD89839A83D2DD3C01E981FA81359795
:1012200061F587E090E09093F5018093F40160E62A
:1012300070E082EF90E0EFDA58DE80CF2091F60187
:101240002817190629F4211519F089EE90E0CDCF61
:1012500065E070E03AD0892B19F486EE90E0C5CFB6
:1012600083EE90E0C2CF812FD5D9811511F07ADAC3
:10127000BDCF602F812F1DDAB9CF07970297B8F243
:101280007092F5016092F401D2CF992778E0880F2F
:10129000991F961708F0961B881F7A95C9F78095B5
:1012A0000895AA1BBB1B51E107C0AA1FBB1FA617AD
:1012B000B70710F0A61BB70B881F991F5A95A9F7FF
:1012C00080959095BC01CD01089597FB072E16F4EB
:1012D000009406D077FD08D0E4DF07FC05D03EF48B
:1012E000909581959F4F0895709561957F4F0895D2
:1012F0000024A7FD00942A0F301D401D501D601DC5
:10130000701D801D901D08952A193B094C095D0927
:101310006E097F09800B910B08952A153B054C053A
:101320005D056E057F058007910708950024A7FDE0
:1013300000942A17300540055005600570058005AA
:10134000900508958F929F92AF92BF92CF92DF92B5
:10135000EF92FF92CF93DF93EC01688179818A81CC
:101360009B81611571058105910521F464E279ED98
:101370008BE597E02DE133EF41E050E067D0490184
:101380005A0127EA31E440E050E047D06B017C018C
:101390002CEE34EF4FEF5FEFC501B4013ED0DC011E
:1013A000CB018C0D9D1DAE1DBF1DB7FF03C0019766
:1013B000A109B04888839983AA83BB839F77DF9173
:1013C000CF91FF90EF90DF90CF90BF90AF909F9024
:1013D0008F900895B7DF089581ED90E0B3DF089511
:1013E000B0E0A0E08093D1009093D200A093D3000E
:1013F000B093D4000895FB01DC0102C005900D926A
:1014000041505040D8F70895FC0105900020E9F7BD
:10141000809590958E0F9F1F0895EE27FF27AA278E
:10142000BB2708C0A20FB31FE41FF51F220F331FF5
:10143000441F551F969587957795679598F370404B
:10144000A9F7009799F7BD01CF010895052E97FBE5
:1014500016F400940FD057FD05D014D007FC02D02D
:1014600046F408C050954095309521953F4F4F4F19
:101470005F4F089590958095709561957F4F8F4F40
:101480009F4F0895A1E21A2EAA1BBB1BFD010DC0A0
:10149000AA1FBB1FEE1FFF1FA217B307E407F50724
:1014A00020F0A21BB30BE40BF50B661F771F881F00
:1014B000991F1A9469F760957095809590959B0196
:1014C000AC01BD01CF010895F894FFCFEACA5ACA12
:1014D00059CA58CA57CA56CA55CA54CA53CA52CA10
:1014E00051CA50CA4FCA4ECA4DCA4CCA0CCBDECAEA
:1014F000E2CAE6CAEACAEECAF2CAF6CAFACAFECA1C
:1015000041CA40CA3FCA3ECA3DCA3CCA3BCA3ACA9F
:1015100039CA38CA37CA36CA35CA34CA33CA32CACF
:1015200031CA30CA2FCA2ECA2DCA2CCA2BCA2ACAFF
:1015300029CA28CA27CA26CA25CA24CA23CA22CA2F
:1015400021CA20CA1FCA1ECA1DCA1CCA1BCA13CA66
:101550002BCA2FCA33CA37CA3BCA3FCA43CA47CA73
:101560004BCA4FCA53CA57CA5BCA5FCA63CA67CA63
:101570006BCA6FCA73CA77CA7BCA7FCA83CA87CA53
:021580008BCA14
:1015820002F400F200770C8E04770C770C8E04EFD5
:1015920008B3089F088E0877109F08B3089F08B306
:1015A200087F088E087F088E087718EF04D504EFAD
:1015B20004D504EF04D504EF04D504BE04B304BE7D
:1015C20004B304BE04B304BE04B3049F048E049F98
:1015D200048E049F048E049F048E0477108E047779
:1015E200107F0C9F0CBE04EF04D504EF04D504EF6A
:1015F2000801000000FF00010000FF01000100FFE0
:1016020000FF016500036B00077900098B001BC115
:021612000008CE
:00000001FF
