:100000001BC022C021C020C01FC01EC01DC01CC0FC
:100010001BC01AC019C018C017C016C015C0AE202A
:1000200000C840817FA1A6A83FD300D580D922DA9D
:1000300012DB208D14A4AF0011241FBECFE5D2E047
:10004000DEBFCDBF17D154C1DBCFBB9AC39A089591
:10005000BB9AC39A2FEF89E698E1215080409040E7
:10006000E1F700C00000C3982FEF84E39CE021502B
:1000700080409040E1F700C00000EBCFCF93DF93CA
:10008000C62F880F880F880F67E0680FBBD061E02C
:100090006C0F8C2FA7D038D080E42DD0C8E0D0E0F2
:1000A0008FEF29D02197E1F7DF91CF9142C0B89A25
:1000B000BA9AC09AC29A8AE28DB980EF8EB98FEF50
:1000C0008FB90895C098C298C09A0895C29AC09AEC
:1000D0000895806F8EB976990895689AFCCFB89884
:1000E0001FB88EE0F6DFB89A90B38FEF8FB981E03A
:1000F000911180E008958FB980E0EBDFF0DF81118E
:1001000002C0BC9AC49A0895DDDF88E7F4CFCF938C
:10011000DF93FADF80E0EFDFCEE1D0E0FE018491F3
:10012000EADF2196F0E0C733DF07C1F7DF91CF9117
:10013000CDCFCCCFEF92FF920F931F93CF93DF934E
:100140007C018B01E1DF80E0D6DFE80100E010E018
:100150000E151F053CF0DF91CF911F910F91FF907D
:10016000EF90B4CF8991C7DF0F5F1F4FF1CFEF92B0
:10017000FF920F931F93CF93DF937C018B01C4DF1A
:1001800080E4B9DFE80100E010E00E151F053CF047
:10019000DF91CF911F910F91FF90EF9097CF8991B1
:1001A000AADF0F5F1F4FF1CFEF92FF920F931F93C4
:1001B000CF93DF938C017B01A7DF80E49CDFC0E05D
:1001C000D0E0C017D1073CF0DF91CF911F910F9184
:1001D000FF90EF907BCFF701EC0FFD1F84918BDF39
:1001E0002196EFCFCF93DF93D82FC62F8DDF80E0FE
:1001F00082DF82E280DF8D2F7EDF8C2F7CDFDF913C
:10020000CF9164CFCF93DF93D82FC62F7DDF80E0CF
:1002100072DF81E270DF8D2F6EDF8C2F6CDFDF915C
:10022000CF9154CFCF93DF936FE780E0EBDF67E0B0
:1002300080E0D8DF69DF80E45EDFC0E0D4E080E00A
:100240005ADF2197E1F7DF91CF9140CF6FE780E44C
:10025000D9DF63E083E0C6DF57DF80E44CDF8FEF58
:100260004ADF80E048DF8FEF46DF80E044DF8FEF3A
:1002700042DF2CCF80E886BD16BC19DF48DFD2DF15
:10028000DBE014E0C1E0CC24C394D12C3DDF80E45A
:1002900032DFF12C00E017C0083058F4911748F015
:1002A000D91738F0A601022E01C0440F0A94EAF7CC
:1002B000842B2F5F3F4F9F5F2830310569F71BDF8D
:1002C0000F5F003829F09F2D20E030E080E0E4CF80
:1002D00088E0F80E80E4F812DDCF2BDF1C0FDC0F76
:1002E000111521F0DF3391F6CFEFD0CFC1E0CECFA3
:0402F000F894FFCFB0
:00000001FF
