:100000001BC035C034C033C032C031C030C02FC077
:100010002EC02DC05BC22BC02AC029C028C0AE2074
:1000200000C840817FA1A6A83FD300D580D922DA9D
:1000300012DB208D14A4AF0011241FBECFE5D2E047
:10004000DEBFCDBF10E0A0E6B0E0EEE8F6E002C013
:1000500005900D92A63DB107D9F720E0A6EDB0E0DE
:1000600001C01D92AB3DB207E1F79DD20EC3C8CFD0
:10007000FC01848190814181682F082E000C770B50
:1000800087FF18C0A92FBB27A1950CF4B0959D013F
:10009000A617B7070CF49B01822F2483980F908337
:1000A000840F818395818281890F82838381890F67
:1000B000838308952FE730E0241B310947FD3395F2
:1000C000261737075CF78FE7841B8483E7CFFC0193
:1000D00084812081280F20839181980F918345810D
:1000E0003281340F32833381340F3383121614F08C
:1000F000819584839F3719F4848181958483089541
:10010000EF92FF920F931F93CF93DF936FE780E0FF
:1001100043D167E080E032D1D9D000E010E0EE2496
:10012000E394F12CC0E0D0E037C0A0E6B0E0ED9160
:10013000FD919081092E001C0008C917D005E4F03C
:100140009181092E001C00089C170D06ACF09281CD
:10015000092E001C00084917500574F09381092EE0
:10016000001C0008941705063CF0B701022E01C0E0
:10017000660F0A94EAF7862B90E0A437B907B9F620
:100180002F5F3F4F4F5F5F4F2830310571F680D0B2
:100190002196C038D10529F0A80120E030E080E0A8
:1001A000C4CF085F1F4F0034110509F0BBCFDF91AA
:1001B000CF911F910F91FF90EF908EC0DC01FB015A
:1001C00081E09C91218129170CF080E091E011964B
:1001D0003C911197208132170CF090E0892B91E02F
:1001E00012962C911297338132170CF090E0892BE4
:1001F00091E013963C91228132170CF090E0892B0C
:1002000091E089270895CF93DF93C62F880F880F39
:10021000880F67E0680FC0D061E06C0F8C2FAED004
:1002200055D0C8E0D0E08FEF33D02197E1F7DF91D0
:10023000CF9152C0BC9AC49A0895C498089588B3C7
:1002400090E1892788BB0895B89ABA9AC09AC29A51
:100250008AE28DB980EF8EB98FEF8FB90895C0987B
:10026000C298C09A0895C29AC09A0895806F8EB9B4
:1002700076990895689AFCCFB8981FB88EE0F6DF9B
:10028000B89A90B38FEF8FB981E0911180E0089513
:100290008FB980E0EBDFF0DF811102C0BC9AC49A15
:1002A0000895DDDF88E7F4CFCF93DF93FADF80E0B6
:1002B000EFDFCEE1D0E0FE018491EADF2196F0E0AD
:1002C000C733DF07C1F7DF91CF91CDCFEADF80E4FD
:1002D000DFCFE7DF80E0DCCFC6CFEF92FF920F9356
:1002E0001F93CF93DF937C018B01C0E0D0E0CE154C
:1002F000DF053CF0DF91CF911F910F91FF90EF90C0
:10030000B2CFF80181918F01C3DF2196F0CFEF9238
:10031000FF920F931F93CF93DF937C018B01D6DF66
:10032000E80100E010E00E151F053CF0DF91CF91D1
:100330001F910F91FF90EF9096CF8991A9DF0F5FEA
:100340001F4FF1CFEF92FF920F931F93CF93DF9345
:100350008C017B01BBDFC0E0D0E0C017D1073CF0CF
:10036000DF91CF911F910F91FF90EF907CCFF7011C
:10037000EC0FFD1F84918CDF2196EFCFCF93DF939D
:10038000D82FC62FA6DF82E283DF8D2F81DF8C2F4F
:100390007FDFDF91CF9167CFCF93DF93D82FC62F29
:1003A00098DF81E275DF8D2F73DF8C2F71DFDF9196
:1003B000CF9159CFCF93DF936FE780E0EDDF67E018
:1003C00080E0DCDF83DFC0E0D4E080E061DF219704
:1003D000E1F7DF91CF9147CF6FE780E4DDDF63E0A6
:1003E00083E0CCDF73DF8FEF53DF80E051DF8FEFEF
:1003F0004FDF80E04DDF8FEF4BDF35CF87B183607C
:1004000087B986B1866886B90895369A369BFECF3D
:1004100084B195B10895BF92CF92DF92EF92FF928F
:100420000F931F93CF93DF9304EF11E0B12CC12CF6
:10043000D12CE12CF12CF894E8DFEC017894895967
:100440009340439738F4B39484E1B81668F180E0A0
:1004500090E02FC0CE018C549340439738F4C3945E
:1004600084E1C81608F181E090E023C0CE01845BEE
:100470009240439738F4D39484E1D816A8F082E0F0
:1004800090E017C0CE01875F9140439738F4E39422
:1004900084E1E81648F083E090E00BC0E29724F492
:1004A000F39484E1F81678F40150104021F685E0C9
:1004B00090E0DF91CF911F910F91FF90EF90DF902F
:1004C000CF90BF90089584E090E0F3CF8F938FB7E3
:1004D0008F939F938091D6009091D700019690932F
:1004E000D7008093D6009F918F918FBF8F911895E1
:1004F0001ABC13BE8AB582608ABD83B7856083BF8C
:1005000083EC89BD12BE89B7806189BF80B78666DA
:1005100080BF1FBC08958DBD86958EBDB99A089584
:10052000B99808959093DA008093D9001092D8007A
:100530001092D7001092D600789408951092DA00A5
:100540001092D900EDDFF8940895E091D900F09170
:10055000DA003097E9F0208131818091D800D9010B
:10056000A80FB11DA80FB11D11969C914091D60006
:100570005091D700491751053CF08F5F8093D80008
:100580001092D7001092D6009281891718F0D6DF0A
:1005900080E00895280F311D280F311DF901808159
:1005A000BADF81E0089580E886BD16BCA1DF26DFB2
:1005B0004BDE7ADE18E008EF82E0F82E9EEFE92E9F
:1005C0009FDD29DF009799F50093AF001092AE00F0
:1005D0008AEA90E04DDD60E670E084EA90E077DD45
:1005E0009091A7008091AD009817BCF182ED90E04A
:1005F00099DFABDF8111FDCF8091AA0094E0980FC5
:100600009093A400895F8093A5008091AC009CEF3B
:10061000980F9093A60081508093A700F092A800B5
:10062000E092A90092DF811571F104DEC9CF81301B
:10063000910529F41093AE001092AF00C9CF83301A
:10064000910519F40093AE00F7CF029719F41093B7
:10065000AF00BCCF1092AE00EFCF64EA70E08AEA40
:1006600090E0ACDD811531F0E092A9008CEC90E0D7
:1006700059DFD8CF8091A6008E30A4F6F092A90061
:0E0680008FEC90E0F5CFD9DD9BCFF894FFCF43
:10068E009E00980092008C00860080007A00740014
:10069E00AA00A400717F090D0000616F090D000012
:1006AE00515F090D0000414F090D0000313F090D4A
:1006BE000000212F090D0000111F090D0000010F70
:1006CE00090D0000101410140202000F383C000037
:1006DE00770A8E05770A8E0A77058E0A7F0A9F0A99
:1006EE00BE0AEF05D505EF05D505EF05B00003B63B
:0606FE000003BC0008002F
:00000001FF
