:1000000063C27DC27CC27BC27AC279C278C277C227
:1000100076C275C2F7C573C272C271C270C200AE39
:100020000008A600089E00C4A4948C0408F00804EC
:1000300084483048840C30C030C0300C0C30C030A4
:100040000C7C8080807C0404FC04044894A448FC5C
:10005000242424D87884A444B8FC242418788484E4
:100060008478FC0C30C0FCFC0C30C0300CFCFC80F4
:1000700080FC304884C0807CFCFC1010FC788484B8
:10008000A4E8FC141404FC949484FC84848478789C
:1000900084848448FC94949468C0302C30C0FF81E0
:1000A0008181818181FFFF81A59999A581FFE0E090
:1000B000E0E0F0F8FF7F3F1F8FC7C7CFCFCF8F8F14
:1000C0008F8F9F1F3F7F7F7FFFFFFFFFFFFFFFFFA0
:1000D0001F1F1F1F1F1F1F3F3F3FFFFFFFFFFFFF90
:1000E000FFFFFFFFFFFFFFFFFFFFFFFFFFFFFFFF20
:1000F0007F7F7F7F7FFFFFFFFFFFFFFFFFFFFFFF90
:10010000FFFFFFFFFFFFFFFFFFFFFFFFFFFFFFFFFF
:10011000FF7F7F7F7F7F7F7F7F7F7FFFFFFFFFFFEF
:10012000FFFFFFFFFFFFFFFFFFF8F0E0E0E0FFFF52
:10013000FFFFFFFFFF000000FFFFFFFFFFFFFFFFCC
:10014000FFFFFFFFFF0300000001030303030100A3
:1001500000FEFEFFFFFFFEFEFE000003070F9F9F55
:100160009F9F9F9F9F9F9F9F9F9F9F9F8F87830181
:1001700078FCFEFEFEFEFFFFFDFBF7E7070F1F1FEB
:100180001F1F9F9F9FBF7F7F7F7F3F1F0F0703C161
:10019000E0F0F8FCFCFCFCFCFCFCFCFCFCFCFCF8CF
:1001A000F0E0C103071F7FFFFFFFFFFFFFFFFFFF1F
:1001B000FFFFFFFFFFFC0000FFFFFFFFFFFFFFFF50
:1001C000FFFFFFFFFFC00000000000000000000074
:1001D000C0FFFFFFFFFFFFFFFF000000FEFFFFFF6C
:1001E000FFFFFFFFFF1F0F07070707070707070F9F
:1001F000000001FFFFFFFFFFFFFFFFFFF000000017
:100200001E3FFFFFFFFFFFFEFCF8C00000C0F8FF2D
:10021000FFFFFFFFFFFFFF7F03010000000001035E
:10022000FFFFFFFFFEFCF8F3870F0F0FFFFFFFFF3D
:10023000FFFFFFFFFF3F0000FFFFFFFFFFFFFFFF8C
:10024000FFFFFFFFFFFF7F3E1E1E1E1E3E7EFEFFC6
:10025000FFFFFFFFFFFFFFFFFF000000FFFFFFFFAB
:10026000FFFFFFFFFFFEFCF8F8F0F0F0F0F8F8FCFD
:10027000FC78001FFFFFFFFFFFFFFF7F0F00000064
:10028000000001FFFFFFFFFFFFFFFF0000FFFFFF78
:10029000FFFFFFFFFFFFFF0000000000000000FC69
:1002A000FFFFFFFFFFFFFFFFFF0000E0FFFFFFFF7B
:1002B000FFFFFFFFFF0000003FFFFFFFFFFFFFFF0B
:1002C000FFFFFFFFFFFF0000000000000000FFFF36
:1002D000FFFFFFFFFFFFFFFFFF000000FFFFFFFF2B
:1002E000FFFFFFFFFFFFC3810000000000000000D0
:1002F000000080003F7FFFFFFFFFF0E0C0C04040F4
:10030000201000FFFFFFFFFFFFFFFF0000030F1F94
:100310003F7FFFFFFFFFC0800000000080C0F8FFAC
:10032000FFFFFFFFFFFF7F3F0F00F0FFFFFFFFFF1B
:10033000FFFFFFFFFF00000000FFFFFFFFFFFFFFC9
:10034000FFFFFFFFFFFF0000000000000000FFFFB5
:10035000FFFFFFFFFFFFFFFFFF0000000103070794
:1003600007070F8F8F8F878F8F8F8F8F8F8F8F8F35
:100370008787E3F0F8F8F8F8F8F9F1F1F1F0F0F028
:10038000F0E0C000071F3F7FFFFFFFFEFCF8F8F81A
:10039000F8FC7E3D03070787C7C7C7C7C7C7C7E3C2
:1003A000E1E1E1E0F0F8FCFEFFFFFFFFFFFFFFFFF0
:1003B000FFFFFFFFFFFEF0E0C0878F9FBFBFBFBF03
:1003C000FFFFFFBF878780C0E0E0E0E0C08F9FBFF6
:1003D000BFBFBFBFBFBF9F8F8780C0E0FCFEFFFFD6
:1003E000FFFFFFFFFFFFFFFFFFFFFFFFFFFFFFFF1D
:1003F000FFFFFFFFFFFFFFFFFFFFFFFFFFFFFFFF0D
:10040000FFFFFFFFFEFCF8F8F8F8F8F8F8F0F0F05E
:10041000F0F0F0F8FCFEFFFFFFFFFFFFFFFFFFFF24
:10042000FFFFFFFFFFFFFFFFFFFFFFFFFFFF0303D4
:1004300003070FFFFFFFFFFFFFFFFFFFFFFFFFFFB0
:10044000FFFFFFFFFFFFFFFFFFFFFFFFFFFFFFFFBC
:10045000FFFFFFFFFFFFFFFFFFFFFFFFFFFFFFFFAC
:10046000FFFFFFFFFFFFFFFFFFFFFFFFFFFFFFFF9C
:10047000FFFFFFFFFFFFFFFFFFFFFFFFFFFFFFFF8C
:10048000FFFFFFFFFFFFFFFFFFFFFFFFFFFFFFFF7C
:10049000FFFFFFFFFFFFFFFFFFFFFFFFFFFFFFFF6C
:1004A000FFFFFFFFFFFFFFFFFF1F0F070707AE2044
:1004B00000C840817FA1A6A83FD300D580D922DA09
:1004C00012DB208D14A4AF0011241FBECFE5D2E0B3
:1004D000DEBFCDBF10E0A0E6B0E0EEE9F0E102C083
:1004E00005900D92AC39B107D9F721E0ACE9B0E045
:1004F00001C01D92AD3BB207E1F7E4D3CEC580CD7C
:10050000E0916300F09164009081981303C081E052
:100510009181961380E00895E0916100F09162006E
:10052000209163003091640032972E173F0711F439
:1005300080E0089590819813F7CF91819613F4CFBE
:1005400081E008950F931F93CF93DF9300E110E0B4
:10055000C8E0D0E033D5E0916300F0916400B801C9
:10056000A6D4880F880F880F808328D5E091630078
:10057000F0916400BE019BD4682F660F660F660F72
:1005800061838081C9DF8111E5CFDF91CF911F9118
:100590000F910895E0916100F09162009F012E5F3C
:1005A0003F4F3093620020936100909160009F5F05
:1005B0009093600082836383C5CF209160002150B7
:1005C000330BECE9F0E040E050E04F5F5F4F3296D4
:1005D0004217530744F0E0916100F091620080837C
:1005E000618381E008959281908393819183EDCF1F
:1005F0002F923F924F925F926F927F928F929F9233
:10060000AF92BF92CF92DF92EF92FF920F931F9320
:10061000CF93DF9300D00F92CDB7DEB7382E292EBF
:100620002B016FE780E01FD167E080E00ED107D19A
:10063000C12CD12C9E012F5F3F4F590188E0682EBD
:10064000712CE12CF12C43E050E06EE170E0C5012B
:10065000C4D4F2013081032D122D20E0C5013217E0
:1006600099F0F80140814E151F0409F03FC0418107
:100670004C151D04D9F543E050E064E270E021110F
:1006800002C061E270E0A9D4912C8981981690F1A2
:10069000812C912C89819301281B310982169306A4
:1006A0008CF138E0E30EF11C80E8E816F10459F60D
:1006B00098E0C90ED11CE0E4CE16D10411F6C4D0E6
:1006C0000F900F900F90DF91CF911F910F91FF909E
:1006D000EF90DF90CF90BF90AF909F908F907F90E2
:1006E0006F905F904F903F902F9008952F5F0E5F17
:1006F0001F4FB5CFEA81FB81E90DF11D849186D0B2
:100700009394C3CF80E082D0FFEF8F1A9F0AC2CFAD
:100710000F931F93CF93DF936FE780E0A4D067E040
:1007200080E093D08CD0CBE4D0E0FE0184916ED0F9
:100730002196F0E0CF34DF07C1F780E067D0C2E652
:10074000D0E0FE01849162D02196F0E0C736DF0749
:10075000C1F780E05BD0C9E9D0E0FE01849156D0BA
:100760002196F0E0CE39DF07C1F780E04FD0C1E736
:10077000D0E0FE0184914AD02196F0E0C537DF0732
:10078000C1F780E043D0C6E8D0E00AE810E0FE01FF
:1007900084913CD021960C171D07C9F780E036D014
:1007A000DF91CF911F910F914FC0B89ABA9AC29A18
:1007B000C09A8FEF8FB98AE28DB980EE8EB9089515
:1007C000C09AC29AC29BFECFC098C298C09A0895A0
:1007D000C098C29AC29BFECFC09A0895C2988EB9A3
:1007E000769B04C080B39FEF9FB90895689A82E01A
:1007F0008A95F1F700C0689A82E08A95F1F700C007
:10080000EFCFB8988EEFEADFB89A08958FB980EFEE
:10081000E5DFF7CFD5DF88E7F9DF80E0F7CFCF93CB
:10082000DF93F8DFCEEAD4E0FE018491EFDF21967A
:10083000F4E0CB3CDF07C1F7DF91CF91C9CFC0DF38
:1008400088E7E4DF80E4E2CFC3CFCF93DF93D82FF4
:10085000C62FE0DF82E2DADF8D2FD8DF8C2FD6DFE4
:10086000DF91CF91B5CFCF93DF93D82FC62FD2DFB3
:1008700081E2CCDF8D2FCADF8C2FC8DFDF91CF91D3
:10088000A7CFEF92FF920F931F93CF93DF938C012B
:100890007B01D5DFC0E0D0E0C017D1073CF0DF918D
:1008A000CF911F910F91FF90EF9092CFF701EC0F36
:1008B000FD1F8491ABDF2196EFCFCF93DF936FE7DE
:1008C00080E0D1DF67E080E0C0DFB9DFC0E0D4E0E6
:1008D00080E09CDF2197E1F7DF91CF9179CF6FE73F
:1008E00080E4C1DF63E083E0B0DFA9DF8FEF8EDF5C
:1008F00080E08CDF8FEF8ADF80E088DF8FEF86DF9C
:1009000067CF67E080E0A1DF6FE780E0ACDF6EEAF1
:1009100070E080E094E0B5CF86B1866886B908952E
:1009200025E080E090E0369A369BFECF44B135B1A9
:10093000532F840F951F2A95B1F765E070E0A3D27D
:10094000CB010895DF92EF92FF920F931F93CF9305
:10095000DF93399A389808EC10E0D12CE12CF12C77
:10096000F894DEDFEC017894805B9240879738F44E
:10097000D3948AE0D816A8F085E090E017C0CE01A5
:100980008A529140879738F4E3948AE0E81648F059
:1009900086E090E00BC0259720F4F3948AE0F816E7
:1009A00068F401501040E1F688E090E0DF91CF91CB
:1009B0001F910F91FF90EF90DF90089587E090E0F6
:1009C000F5CFBF92CF92DF92EF92FF920F931F93DA
:1009D000CF93DF9387B1836087B908EC10E0B12C27
:1009E000C12CD12CE12CF12CF8949ADFEC017894F5
:1009F0008F539340879738F4B3948AE0B81668F120
:100A000080E090E02FC0CE01805C9240879738F460
:100A1000C3948AE0C81608F181E090E023C0CE01BB
:100A2000805F9140879738F4E3948AE0E816A8F055
:100A300083E090E017C0CE0189539140879738F446
:100A4000D3948AE0D81648F082E090E00BC0259756
:100A500020F4F3948AE0F81678F40150104021F65F
:100A600088E090E0DF91CF911F910F91FF90EF9080
:100A7000DF90CF90BF90089587E090E0F3CF80B7EC
:100A8000866680BF1FBC08958DBD86958EBDB99AC0
:100A90000895B99808959093B4018093B30110928A
:100AA000B201FDD02093AA013093AB014093AC0179
:100AB0005093AD016093AE017093AF018093B0018C
:100AC0009093B10108951092B4011092B301E1CF57
:100AD00081E02091B3013091B401232B09F480E02F
:100AE00008952F923F924F925F926F927F928F92D2
:100AF0009F92AF92BF92CF92DF92EF92FF920F93AD
:100B00001F93CF93DF9300D000D0CDB7DEB7809195
:100B1000B3019091B401892B09F452C0C0D0322E98
:100B2000432E542E652E762E7C838B83292E809027
:100B3000B3019090B401D4010D90BC91A02DBA8363
:100B4000A983E091B201A090AA01B090AB01C0903E
:100B5000AC01D090AD01E090AE01F090AF010091FA
:100B6000B0011091B101C2D18D010E0F111D0E0FF8
:100B7000111DD8011196AC90B12CC12CD12CE12CB7
:100B8000F12C00E010E0BBD1A8F0EF5FE093B201E0
:100B90003092AA014092AB015092AC016092AD013B
:100BA0007092AE01BC81B093AF01FB81F093B001B4
:100BB0002092B101D40112968C91E817C8F083DF1E
:100BC00080E00F900F900F900F90DF91CF911F91C9
:100BD0000F91FF90EF90DF90CF90BF90AF909F90DC
:100BE0008F907F906F905F904F903F902F900895DF
:100BF000A981BA81AE0FB11DAE0FB11D8C9144DF3A
:100C000081E0DFCF0F920FB60F921F9211242F9326
:100C10003F934F935F936F937F938F939F93AF9384
:100C20002091B5013091B6014091B7015091B801C2
:100C30006091B9017091BA018091BB019091BC01A2
:100C4000A1E048D12093B5013093B6014093B7019C
:100C50005093B8016093B9017093BA018093BB01BE
:100C60009093BC01AF919F918F917F916F915F9114
:100C70004F913F912F911F900F900FBE0F9018959D
:100C80001ABC13BE8AB582608ABD83B7856083BFF4
:100C900083EC89BD12BE89B7806189BF0895F8943D
:100CA0002091B5013091B6014091B7015091B80142
:100CB0006091B9017091BA018091BB019091BC0122
:100CC0007894089500D000D000D0CDB7DEB780E88A
:100CD00086BD16BCD5DFD3DE1FDE67DDA0DDEDDD12
:100CE0001092A9011092A801E0916100F0916200B8
:100CF00080E4808388E1818325DC87E090E0909325
:100D00009F0180939E01CBDF2093A0013093A1012E
:100D10004093A2015093A3016093A4017093A50195
:100D20008093A6019093A70166246394712C80910F
:100D3000A8019091A901892BA1F08091A80190911F
:100D4000A9010197B9F08091A8019091A90102979A
:100D500071F7F8DD0697B9F77092A9016092A801C2
:100D6000F2CFD6DCEFDD069711F77092A901609201
:100D7000A801DDCF94DF19012A016E837D838B8367
:100D80009C83A090A001B090A101C090A201D0903E
:100D9000A301E090A401F090A5010091A60110919B
:100DA000A701A4D0A6E0B4D008F445C080919E016C
:100DB00090919F0100E010E08730910540F4FC0124
:100DC000E457FF4F10818B579F4FFC010081E0914A
:100DD0006100F0916200110F110F110F8081180F47
:100DE000000F000F000F8181080F1F770F73602F16
:100DF000812F86DB602F811579F1812FCBDB83E991
:100E000090E049DE60E670E08CE990E0F1DB209252
:100E1000A0013092A1014092A2015092A301FE8153
:100E2000F093A4018D818093A5019B819093A601ED
:100E3000EC81E093A70186DD89839A83C2DD4C01B2
:100E400089819A810597B1F43EDE92E09093A801E2
:100E50001092A90146DE71CF812F5EDB811531F042
:100E600037DE811103C089E990E015DE602F812F04
:100E7000A4DBC8CFC4010797029760F390929F014B
:100E800080929E01E7CFAA1BBB1B51E107C0AA1F9E
:100E9000BB1FA617B70710F0A61BB70B881F991F1B
:100EA0005A95A9F780959095BC01CD01089597FBBF
:100EB000072E16F4009406D077FD08D0E4DF07FC77
:100EC00005D03EF4909581959F4F0895709561955A
:100ED0007F4F08950024A7FD00942A0F301D401D68
:100EE000501D601D701D801D901D08952A193B091D
:100EF0004C095D096E097F09800B910B08952A1535
:100F00003B054C055D056E057F058007910708953B
:100F10000024A7FD00942A17300540055005600500
:100F200070058005900508958F929F92AF92BF92B1
:100F3000CF92DF92EF92FF92CF93DF93EC01688123
:100F400079818A819B81611571058105910521F463
:100F500064E279ED8BE597E02DE133EF41E050E07D
:100F60005ED049015A0127EA31E440E050E03ED02A
:100F70006B017C012CEE34EF4FEF5FEFC501B40144
:100F800035D0DC01CB018C0D9D1DAE1DBF1DB7FF03
:100F900003C00197A109B04888839983AA83BB83C2
:100FA0009F77DF91CF91FF90EF90DF90CF90BF9030
:100FB000AF909F908F900895B7DF089581E890E0FB
:100FC000B3DF0895B0E0A0E08093810090938200A9
:100FD000A0938300B09384000895FB01DC0102C05C
:100FE00005900D9241505040D8F70895EE27FF2705
:100FF000AA27BB2708C0A20FB31FE41FF51F220FAB
:10100000331F441F551F969587957795679598F3DD
:101010007040A9F7009799F7BD01CF010895052EFB
:1010200097FB16F400940FD057FD05D014D007FCA1
:1010300002D046F408C050954095309521953F4F19
:101040004F4F5F4F089590958095709561957F4FB4
:101050008F4F9F4F0895A1E21A2EAA1BBB1BFD01C3
:101060000DC0AA1FBB1FEE1FFF1FA217B307E40787
:10107000F50720F0A21BB30BE40BF50B661F771FDF
:10108000881F991F1A9469F76095709580959095BF
:0E1090009B01AC01BD01CF010895F894FFCF84
:10109E00029E009C00770A8E05770A8E0A77058ECF
:1010AE000A7F0A9F0ABE0AEF05D505EF05D505EFA3
:1010BE000501000000FF00010000FF01000100FF1C
:0C10CE0000FF016500036B0003710008C7
:00000001FF
