:100000001EC038C037C036C035C034C033C032C05F
:1000100031C030C0FAC32EC02DC02CC02BC0AED50D
:10002000F0A83FD300408D142000A1C8DA12813F10
:10003000D922DB20A4A62EAF22003F21007F11246D
:100040001FBECFE5D2E0DEBFCDBF10E0A0E6B0E03E
:10005000ECE2FCE002C005900D92AC3AB107D9F792
:1000600021E0ACEAB0E001C01D92A33DB207E1F788
:100070002CD4DAC5C5CF91E0603408F490E087FB5A
:10008000882780F9892B0895E0916300F09164003E
:100090009081981303C081E09181961380E00895C8
:1000A000E0916100F0916200209163003091640062
:1000B00032972E173F0711F480E00895908198132E
:1000C000F7CF91819613F4CF81E008950F931F939A
:1000D000CF93DF9300E110E0C8E0D0E03FD5E0919E
:1000E0006300F0916400B801B2D4880F880F880FC4
:1000F000808334D5E0916300F0916400BE01A7D401
:10010000682F660F660F660F61838081C9DF8111DA
:10011000E5CFDF91CF911F910F910895E09161009C
:10012000F09162009F012E5F3F4F30936200209359
:100130006100909160009F5F909360008283638371
:10014000C5CF209160002150330BECEAF0E040E095
:1001500050E04F5F5F4F32964217530744F0E091F3
:100160006100F09162008083618381E00895928153
:10017000908393819183EDCFCF92DF92EF92FF92A4
:100180000F931F93CF93DF936FE780E094D167E0E5
:1001900080E083D12AD100E010E0F02EC0E0D0E072
:1001A00087E0E82EE00EEC2F4091600050E0ACEAD2
:1001B000B0E060E070E06417750714F080E028C0DC
:1001C0008C91E81708F447C0282F30E0295F3F4F93
:1001D0002C173D070CF43FC011962C911197F21685
:1001E00058F1C22ED12C37E0C30ED11CC016D10657
:1001F00094F1E81B0E2E000CFF0BEB59FF4F808192
:1002000090E03F2D321B02C0959587953A95E2F715
:10021000CED02196C038D10531F6085F1F4F00348B
:10022000110509F0BACFDF91CF911F910F91FF9087
:10023000EF90DF90CF90DFC0E21668F0E81B0E2E43
:10024000000CFF0BEB59FF4F80812F1901C0880F65
:100250002A95EAF7DDCF6F5F7F4F1296ACCF4F92B2
:100260005F926F927F928F929F92AF92BF92CF9246
:10027000DF92EF92FF920F931F93CF93DF936FE77D
:1002800080E019D167E080E008D1AFD0E12CF12CFB
:100290004EEA51E025E630E08DE690E0B42EA52E42
:1002A000722E632E582E492E00E010E024C02081CB
:1002B0002017110651F421812E151F0431F48111EC
:1002C00020C0C52D942DD92F06C08F5F329698136C
:1002D000EECFCB2DDA2D6E01FE0138964F01F601DF
:1002E00081916F0164D0C814D904C9F7085F1F4F0A
:1002F0000038110549F090916000ECEAF0E080E0F0
:10030000E6CFC72D962DDFCFF8E0EF0EF11C80E48D
:10031000E816F10449F6DF91CF911F910F91FF90FC
:10032000EF90DF90CF90BF90AF909F908F907F9095
:100330006F905F904F905FC0BC9AC49A0895C49824
:10034000089588B390E1892788BB0895B89ABA9A2E
:10035000C29AC09A8AE28DB980EF8EB98FEF8FB9B9
:10036000C09A0895B89ABA9AC29AC09AC098C29888
:100370000895C29AC09A0895806F8EB976990895AB
:10038000689A82E08A95F1F700C0689A82E08A95BF
:10039000F1F700C0F3CFB8981FB88EE0EDDFB89A40
:1003A00090B38FEF8FB981E0911180E008958FB9FC
:1003B00080E0E2DFF0DF811102C0BC9AC49A0895A8
:1003C000D1DF88E7F4CFCF93DF93FADF80E0EFDF70
:1003D000CEE1D0E0FE018491EADF2196F0E0C73360
:1003E000DF07C1F7DF91CF91C4CFEADF80E4DFCF31
:1003F000E7DF80E0DCCFBDCFEF92FF920F931F933A
:10040000CF93DF937C018B01C0E0D0E0CE15DF05F8
:100410003CF0DF91CF911F910F91FF90EF90A9CF0A
:10042000F80181918F01C3DF2196F0CFEF92FF9207
:100430000F931F93CF93DF937C018B01D6DFE801ED
:1004400000E010E00E151F053CF0DF91CF911F91E9
:100450000F91FF90EF908DCF8991A9DF0F5F1F4F14
:10046000F1CFEF92FF920F931F93CF93DF938C0105
:100470007B01BBDFC0E0D0E0C017D1073CF0DF91CB
:10048000CF911F910F91FF90EF9073CFF701EC0F79
:10049000FD1F84918CDF2196EFCFCF93DF93D82F70
:1004A000C62FA6DF82E283DF8D2F81DF8C2F7FDFD7
:1004B000DF91CF915ECFCF93DF93D82FC62F98DFF8
:1004C00081E275DF8D2F73DF8C2F71DFDF91CF918C
:1004D00050CFCF93DF936FE780E0EDDF67E080E000
:1004E000DCDF83DFC0E0D4E080E061DF2197E1F76B
:1004F000DF91CF913ECF6FE780E4DDDF63E083E003
:10050000CCDF73DF8FEF53DF80E051DF8FEF4FDF02
:1005100080E04DDF8FEF4BDF2CCF86B1866886B948
:10052000089525E080E090E0369A369BFECF44B1F6
:1005300035B1532F840F951F2A95B1F765E070E010
:1005400072D2CB010895DF92EF92FF920F931F9327
:10055000CF93DF93399A389808EC10E0D12CE12C36
:10056000F12CF894DEDFEC017894895592408336C3
:10057000910538F4D3948AE0D816B0F085E090E085
:1005800018C0CE0181529340873C910538F4E39422
:100590008AE0E81648F086E090E00BC0259720F44A
:1005A000F3948AE0F81668F401501040D1F688E020
:1005B00090E0DF91CF911F910F91FF90EF90DF902E
:1005C000089587E090E0F5CFBF92CF92DF92EF924F
:1005D000FF920F931F93CF93DF9387B1836087B907
:1005E00008EC10E0B12CC12CD12CE12CF12CF894AA
:1005F00098DFEC0178948A599340439738F4E39458
:100600008AE0E81668F183E090E02FC0CE018453C1
:100610009340439738F4B3948AE0B81608F180E029
:1006200090E023C0CE01875A92400E9738F4D394BD
:100630008AE0D816A8F082E090E017C0CE01875F6C
:100640009140439738F4C3948AE0C81648F081E09B
:1006500090E00BC0259720F4F3948AE0F81678F424
:100660000150104021F688E090E0DF91CF911F917A
:100670000F91FF90EF90DF90CF90BF90089587E0AB
:1006800090E0F3CF80B7866680BF1FBC08958DBD14
:1006900086958EBDB99A0895B99808959093CA0128
:1006A0008093C9011092C801FDD02093C0013093FE
:1006B000C1014093C2015093C3016093C401709380
:1006C000C5018093C6019093C70108951092CA0195
:1006D0001092C901E1CF81E02091C9013091CA0196
:1006E000232B09F480E008952F923F924F925F925E
:1006F0006F927F928F929F92AF92BF92CF92DF9232
:10070000EF92FF920F931F93CF93DF9300D000D00F
:10071000CDB7DEB78091C9019091CA01892B09F448
:1007200052C0C0D0322E432E542E652E762E7C839E
:100730008B83292E8090C9019090CA01D4010D901D
:10074000BC91A02DBA83A983E091C801A090C001FB
:10075000B090C101C090C201D090C301E090C4012B
:10076000F090C5010091C6011091C7018FD18D0194
:100770000E0F111D0E0F111DD8011196AC90B12C4A
:10078000C12CD12CE12CF12C00E010E088D1A8F094
:10079000EF5FE093C8013092C0014092C1015092D6
:1007A000C2016092C3017092C401BC81B093C501C3
:1007B000FB81F093C6012092C701D40112968C915F
:1007C000E817C8F083DF80E00F900F900F900F9034
:1007D000DF91CF911F910F91FF90EF90DF90CF901D
:1007E000BF90AF909F908F907F906F905F904F9051
:1007F0003F902F900895A981BA81AE0FB11DAE0F21
:10080000B11D8C9144DF81E0DFCF0F920FB60F92C4
:100810001F9211242F933F934F935F936F937F9376
:100820008F939F93AF932091CB013091CC01409156
:10083000CD015091CE016091CF017091D001809196
:10084000D1019091D201A1E015D12093CB01309339
:10085000CC014093CD015093CE016093CF017093B2
:10086000D0018093D1019093D201AF919F918F914C
:100870007F916F915F914F913F912F911F900F90BA
:100880000FBE0F9018951ABC13BE8AB582608ABD40
:1008900083B7856083BF83EC89BD12BE89B7806151
:1008A00089BF0895F8942091CB013091CC014091FB
:1008B000CD015091CE016091CF017091D001809116
:1008C000D1019091D2017894089500D000D0CDB795
:1008D000DEB780E886BD16BCD6DFD4DE1EDE36DD90
:1008E00072DDF7DDE0916100F091620080E48083C9
:1008F00088E18183EBDB87E090E09093B701809300
:10090000B601D0DF2093B8013093B9014093BA010A
:100910005093BB016093BC017093BD018093BE01F5
:100920009093BF01BFDF19012A016C837B83898308
:100930009A83A090B801B090B901C090BA01D0904C
:10094000BB01E090BC01F090BD010091BE0110918F
:10095000BF019CD0ABE0ACD0E0F18091B6019091AA
:10096000B70100E010E08730910540F4FC01E45647
:10097000FF4F10818B569F4FFC010081E091610079
:10098000F0916200110F110F110F8081180F000FED
:10099000000F000F8181080F602F812F75DB602F02
:1009A000811529F1812FBADB5ADC2092B8013092EF
:1009B000B9014092BA015092BB01FC81F093BC0195
:1009C0008B818093BD01E981E093BE01FA81F093B0
:1009D000BF01B9DD4C01F8DD3C01C4010797029766
:1009E000C8F09092B7018092B6017EDE9BCF812F36
:1009F00057DB811551F06FDE811103C089EA90E069
:100A00004DDE602F812F9DDBCFCF17FDCDCF003482
:100A1000C0F3CACFC3010797029738F37092B701AA
:100A20006092B601E2CFAA1BBB1B51E107C0AA1F0F
:100A3000BB1FA617B70710F0A61BB70B881F991F7F
:100A40005A95A9F780959095BC01CD01089597FB23
:100A5000072E16F4009406D077FD08D0E4DF07FCDB
:100A600005D03EF4909581959F4F089570956195BE
:100A70007F4F08950024A7FD00942A0F301D401DCC
:100A8000501D601D701D801D901D08952A193B0981
:100A90004C095D096E097F09800B910B08952A1599
:100AA0003B054C055D056E057F05800791070895A0
:100AB0000024A7FD00942A17300540055005600565
:100AC00070058005900508958F929F92AF92BF9216
:100AD000CF92DF92EF92FF92CF93DF93EC01688188
:100AE00079818A819B81611571058105910521F4C8
:100AF00064E279ED8BE597E02DE133EF41E050E0E2
:100B000055D049015A0127EA31E440E050E035D0A0
:100B10006B017C012CEE34EF4FEF5FEFC501B401A8
:100B20002CD0DC01CB018C0D9D1DAE1DBF1DB7FF70
:100B300003C00197A109B04888839983AA83BB8326
:100B40009F77DF91CF91FF90EF90DF90CF90BF9094
:100B5000AF909F908F900895B7DF089581E990E05E
:100B6000B3DF0895B0E0A0E08093910090939200ED
:100B7000A0939300B09394000895EE27FF27AA272F
:100B8000BB2708C0A20FB31FE41FF51F220F331F9E
:100B9000441F551F969587957795679598F37040F4
:100BA000A9F7009799F7BD01CF010895052E97FB8E
:100BB00016F400940FD057FD05D014D007FC02D0D6
:100BC00046F408C050954095309521953F4F4F4FC2
:100BD0005F4F089590958095709561957F4F8F4FE9
:100BE0009F4F0895A1E21A2EAA1BBB1BFD010DC049
:100BF000AA1FBB1FEE1FFF1FA217B307E407F507CD
:100C000020F0A21BB30BE40BF50B661F771F881FA8
:100C1000991F1A9469F760957095809590959B013E
:0C0C2000AC01BD01CF010895F894FFCF96
:100C2C0002AE00AC00FF818181818181FFFF81A533
:100C3C009999A581FF770A8E05770A8E0A77058E1A
:100C4C000A7F0A9F0ABE0AEF05D505EF05D505EF09
:100C5C000501000000FF00010000FF01000100FF82
:0C0C6C0000FF017500037B0003810008FD
:00000001FF
